{
  "contracts/Hotel-Booking.sol": {
    "Hotel": {
      "abi": [
        {
          "inputs": [],
          "stateMutability": "nonpayable",
          "type": "constructor"
        },
        {
          "anonymous": false,
          "inputs": [
            {
              "indexed": true,
              "internalType": "uint256",
              "name": "roomId",
              "type": "uint256"
            },
            {
              "indexed": false,
              "internalType": "string",
              "name": "room_name",
              "type": "string"
            },
            {
              "indexed": false,
              "internalType": "string",
              "name": "room_address",
              "type": "string"
            },
            {
              "indexed": false,
              "internalType": "uint256",
              "name": "rent_per_month",
              "type": "uint256"
            },
            {
              "indexed": true,
              "internalType": "address",
              "name": "landlord",
              "type": "address"
            }
          ],
          "name": "AgreementCompleted",
          "type": "event"
        },
        {
          "anonymous": false,
          "inputs": [
            {
              "indexed": true,
              "internalType": "uint256",
              "name": "agreementId",
              "type": "uint256"
            },
            {
              "indexed": false,
              "internalType": "uint256",
              "name": "roomId",
              "type": "uint256"
            },
            {
              "indexed": false,
              "internalType": "string",
              "name": "room_name",
              "type": "string"
            },
            {
              "indexed": false,
              "internalType": "string",
              "name": "room_address",
              "type": "string"
            },
            {
              "indexed": false,
              "internalType": "uint256",
              "name": "rent_per_month",
              "type": "uint256"
            },
            {
              "indexed": false,
              "internalType": "uint256",
              "name": "security_deposit",
              "type": "uint256"
            },
            {
              "indexed": false,
              "internalType": "address",
              "name": "landlord",
              "type": "address"
            },
            {
              "indexed": false,
              "internalType": "address",
              "name": "tenant",
              "type": "address"
            }
          ],
          "name": "AgreementSigned",
          "type": "event"
        },
        {
          "anonymous": false,
          "inputs": [
            {
              "indexed": true,
              "internalType": "uint256",
              "name": "roomId",
              "type": "uint256"
            },
            {
              "indexed": false,
              "internalType": "string",
              "name": "room_name",
              "type": "string"
            },
            {
              "indexed": false,
              "internalType": "string",
              "name": "room_address",
              "type": "string"
            },
            {
              "indexed": false,
              "internalType": "uint256",
              "name": "rent_per_month",
              "type": "uint256"
            },
            {
              "indexed": true,
              "internalType": "address",
              "name": "landlord",
              "type": "address"
            }
          ],
          "name": "AgreementTerminated",
          "type": "event"
        },
        {
          "anonymous": false,
          "inputs": [
            {
              "indexed": false,
              "internalType": "uint256",
              "name": "rentId",
              "type": "uint256"
            },
            {
              "indexed": true,
              "internalType": "uint256",
              "name": "roomId",
              "type": "uint256"
            },
            {
              "indexed": false,
              "internalType": "string",
              "name": "room_name",
              "type": "string"
            },
            {
              "indexed": false,
              "internalType": "string",
              "name": "room_address",
              "type": "string"
            },
            {
              "indexed": false,
              "internalType": "uint256",
              "name": "rent_per_month",
              "type": "uint256"
            },
            {
              "indexed": true,
              "internalType": "address",
              "name": "landlord",
              "type": "address"
            },
            {
              "indexed": true,
              "internalType": "address",
              "name": "tenant",
              "type": "address"
            }
          ],
          "name": "RentPaid",
          "type": "event"
        },
        {
          "anonymous": false,
          "inputs": [
            {
              "indexed": true,
              "internalType": "uint256",
              "name": "roomId",
              "type": "uint256"
            },
            {
              "indexed": false,
              "internalType": "string",
              "name": "room_name",
              "type": "string"
            },
            {
              "indexed": false,
              "internalType": "string",
              "name": "room_address",
              "type": "string"
            },
            {
              "indexed": false,
              "internalType": "uint256",
              "name": "rent_per_month",
              "type": "uint256"
            },
            {
              "indexed": false,
              "internalType": "uint256",
              "name": "security_deposit",
              "type": "uint256"
            },
            {
              "indexed": false,
              "internalType": "address",
              "name": "landlord",
              "type": "address"
            }
          ],
          "name": "RoomAdded",
          "type": "event"
        },
        {
          "inputs": [
            {
              "internalType": "uint256",
              "name": "",
              "type": "uint256"
            }
          ],
          "name": "Agreements",
          "outputs": [
            {
              "internalType": "uint256",
              "name": "room_id",
              "type": "uint256"
            },
            {
              "internalType": "uint256",
              "name": "agreement_id",
              "type": "uint256"
            },
            {
              "internalType": "string",
              "name": "room_name",
              "type": "string"
            },
            {
              "internalType": "string",
              "name": "room_address",
              "type": "string"
            },
            {
              "internalType": "uint256",
              "name": "rent_per_month",
              "type": "uint256"
            },
            {
              "internalType": "uint256",
              "name": "security_deposit",
              "type": "uint256"
            },
            {
              "internalType": "uint256",
              "name": "timestamp",
              "type": "uint256"
            },
            {
              "internalType": "address payable",
              "name": "landlord_address",
              "type": "address"
            },
            {
              "internalType": "address payable",
              "name": "tenant_address",
              "type": "address"
            }
          ],
          "stateMutability": "view",
          "type": "function"
        },
        {
          "inputs": [
            {
              "internalType": "uint256",
              "name": "",
              "type": "uint256"
            }
          ],
          "name": "Rents",
          "outputs": [
            {
              "internalType": "uint256",
              "name": "rent_id",
              "type": "uint256"
            },
            {
              "internalType": "uint256",
              "name": "room_id",
              "type": "uint256"
            },
            {
              "internalType": "uint256",
              "name": "agreement_id",
              "type": "uint256"
            },
            {
              "internalType": "string",
              "name": "room_name",
              "type": "string"
            },
            {
              "internalType": "string",
              "name": "room_address",
              "type": "string"
            },
            {
              "internalType": "uint256",
              "name": "rent_per_month",
              "type": "uint256"
            },
            {
              "internalType": "uint256",
              "name": "timestamp",
              "type": "uint256"
            },
            {
              "internalType": "address payable",
              "name": "landlord_address",
              "type": "address"
            },
            {
              "internalType": "address payable",
              "name": "tenant_address",
              "type": "address"
            }
          ],
          "stateMutability": "view",
          "type": "function"
        },
        {
          "inputs": [
            {
              "internalType": "uint256",
              "name": "",
              "type": "uint256"
            }
          ],
          "name": "Rooms",
          "outputs": [
            {
              "internalType": "uint256",
              "name": "room_id",
              "type": "uint256"
            },
            {
              "internalType": "uint256",
              "name": "agreement_id",
              "type": "uint256"
            },
            {
              "internalType": "string",
              "name": "room_name",
              "type": "string"
            },
            {
              "internalType": "string",
              "name": "room_address",
              "type": "string"
            },
            {
              "internalType": "uint256",
              "name": "rent_per_month",
              "type": "uint256"
            },
            {
              "internalType": "uint256",
              "name": "security_deposit",
              "type": "uint256"
            },
            {
              "internalType": "uint256",
              "name": "timestamp",
              "type": "uint256"
            },
            {
              "internalType": "bool",
              "name": "vacant",
              "type": "bool"
            },
            {
              "internalType": "address payable",
              "name": "landlord",
              "type": "address"
            },
            {
              "internalType": "address payable",
              "name": "current_tenant",
              "type": "address"
            },
            {
              "internalType": "bool",
              "name": "securityDepositWithdrawn",
              "type": "bool"
            }
          ],
          "stateMutability": "view",
          "type": "function"
        },
        {
          "inputs": [
            {
              "internalType": "string",
              "name": "_roomName",
              "type": "string"
            },
            {
              "internalType": "string",
              "name": "_roomAddress",
              "type": "string"
            },
            {
              "internalType": "uint256",
              "name": "_rentPerMonth",
              "type": "uint256"
            },
            {
              "internalType": "uint256",
              "name": "_securityDeposit",
              "type": "uint256"
            }
          ],
          "name": "addRoom",
          "outputs": [],
          "stateMutability": "nonpayable",
          "type": "function"
        },
        {
          "inputs": [
            {
              "internalType": "uint256",
              "name": "_roomId",
              "type": "uint256"
            }
          ],
          "name": "agreementCompleted",
          "outputs": [],
          "stateMutability": "nonpayable",
          "type": "function"
        },
        {
          "inputs": [
            {
              "internalType": "uint256",
              "name": "_roomId",
              "type": "uint256"
            }
          ],
          "name": "agreementTerminated",
          "outputs": [],
          "stateMutability": "nonpayable",
          "type": "function"
        },
        {
          "inputs": [],
          "name": "contractOwner",
          "outputs": [
            {
              "internalType": "address",
              "name": "",
              "type": "address"
            }
          ],
          "stateMutability": "view",
          "type": "function"
        },
        {
          "inputs": [],
          "name": "getNumberOfRoomsAvailable",
          "outputs": [
            {
              "internalType": "uint256",
              "name": "",
              "type": "uint256"
            }
          ],
          "stateMutability": "view",
          "type": "function"
        },
        {
          "inputs": [],
          "name": "getTotalNumberOfRooms",
          "outputs": [
            {
              "internalType": "uint256",
              "name": "",
              "type": "uint256"
            }
          ],
          "stateMutability": "view",
          "type": "function"
        },
        {
          "inputs": [],
          "name": "getTotalNumberOfRoomsRented",
          "outputs": [
            {
              "internalType": "uint256",
              "name": "",
              "type": "uint256"
            }
          ],
          "stateMutability": "view",
          "type": "function"
        },
        {
          "inputs": [
            {
              "internalType": "uint256",
              "name": "_roomId",
              "type": "uint256"
            }
          ],
          "name": "payRent",
          "outputs": [],
          "stateMutability": "payable",
          "type": "function"
        },
        {
          "inputs": [
            {
              "internalType": "uint256",
              "name": "_roomId",
              "type": "uint256"
            }
          ],
          "name": "signAgreement",
          "outputs": [],
          "stateMutability": "payable",
          "type": "function"
        },
        {
          "inputs": [
            {
              "internalType": "uint256",
              "name": "_roomId",
              "type": "uint256"
            }
          ],
          "name": "withdrawSecurityDeposit",
          "outputs": [],
          "stateMutability": "nonpayable",
          "type": "function"
        }
      ],
      "evm": {
        "bytecode": {
          "linkReferences": {},
          "object": "6080604052348015600f57600080fd5b50336000806101000a81548173ffffffffffffffffffffffffffffffffffffffff021916908373ffffffffffffffffffffffffffffffffffffffff1602179055506130ca8061005f6000396000f3fe6080604052600436106100c25760003560e01c806363e475bd1161007f578063ce606ee011610059578063ce606ee01461024d578063d8b4ac9d14610278578063d9e8843f146102bd578063f673e2c7146102d9576100c2565b806363e475bd146101d057806365bf01d6146101f957806398d380e014610224576100c2565b806303742de0146100c75780630e3abb7f146100e357806316abb8a11461010e57806324466976146101375780634f5e4428146101625780635af57a8c1461018b575b600080fd5b6100e160048036038101906100dc9190611e78565b610320565b005b3480156100ef57600080fd5b506100f86108d5565b6040516101059190611eb4565b60405180910390f35b34801561011a57600080fd5b5061013560048036038101906101309190611e78565b61093f565b005b34801561014357600080fd5b5061014c610aec565b6040516101599190611eb4565b60405180910390f35b34801561016e57600080fd5b5061018960048036038101906101849190611e78565b610b55565b005b34801561019757600080fd5b506101b260048036038101906101ad9190611e78565b610df5565b6040516101c799989796959493929190611fa0565b60405180910390f35b3480156101dc57600080fd5b506101f760048036038101906101f29190612170565b610f93565b005b34801561020557600080fd5b5061020e611252565b60405161021b9190611eb4565b60405180910390f35b34801561023057600080fd5b5061024b60048036038101906102469190611e78565b61125c565b005b34801561025957600080fd5b50610262611461565b60405161026f9190612230565b60405180910390f35b34801561028457600080fd5b5061029f600480360381019061029a9190611e78565b611485565b6040516102b49998979695949392919061224b565b60405180910390f35b6102d760048036038101906102d29190611e78565b611623565b005b3480156102e557600080fd5b5061030060048036038101906102fb9190611e78565b611c6a565b6040516103179b9a99989796959493929190612301565b60405180910390f35b806004600082815260200190815260200160002060070160009054906101000a900460ff16610384576040517f08c379a000000000000000000000000000000000000000000000000000000000815260040161037b90612406565b60405180910390fd5b81670de0b6b3a764000060046000838152602001908152602001600020600401546103af9190612455565b3410156103f1576040517f08c379a00000000000000000000000000000000000000000000000000000000081526004016103e890612509565b60405180910390fd5b826000670de0b6b3a7640000600460008481526020019081526020016000206005015460046000858152602001908152602001600020600401546104359190612529565b61043f9190612455565b905080341015610484576040517f08c379a000000000000000000000000000000000000000000000000000000000815260040161047b906125a9565b60405180910390fd5b846000600560006004600085815260200190815260200160002060010154815260200190815260200160002060060154116104f4576040517f08c379a00000000000000000000000000000000000000000000000000000000081526004016104eb90612615565b60405180910390fd5b6002600081548092919061050790612635565b919050555060006002549050600060046000898152602001908152602001600020905060006040518061012001604052808a8152602001848152602001836002018054610553906126ac565b80601f016020809104026020016040519081016040528092919081815260200182805461057f906126ac565b80156105cc5780601f106105a1576101008083540402835291602001916105cc565b820191906000526020600020905b8154815290600101906020018083116105af57829003601f168201915b505050505081526020018360030180546105e5906126ac565b80601f0160208091040260200160405190810160405280929190818152602001828054610611906126ac565b801561065e5780601f106106335761010080835404028352916020019161065e565b820191906000526020600020905b81548152906001019060200180831161064157829003601f168201915b5050505050815260200183600401548152602001836005015481526020014281526020018360070160019054906101000a900473ffffffffffffffffffffffffffffffffffffffff1673ffffffffffffffffffffffffffffffffffffffff1681526020013373ffffffffffffffffffffffffffffffffffffffff16815250905080600560008581526020019081526020016000206000820151816000015560208201518160010155604082015181600201908161071b9190612889565b5060608201518160030190816107319190612889565b506080820151816004015560a0820151816005015560c0820151816006015560e08201518160070160006101000a81548173ffffffffffffffffffffffffffffffffffffffff021916908373ffffffffffffffffffffffffffffffffffffffff1602179055506101008201518160080160006101000a81548173ffffffffffffffffffffffffffffffffffffffff021916908373ffffffffffffffffffffffffffffffffffffffff160217905550905050828260010181905550338260080160006101000a81548173ffffffffffffffffffffffffffffffffffffffff021916908373ffffffffffffffffffffffffffffffffffffffff16021790555060008260070160006101000a81548160ff021916908315150217905550428260060181905550827fb17166c219038e71b7274024b7f3d8d6000f45a3e5be9a002ee9d052c4761f298a8460020185600301866004015487600501548860070160019054906101000a900473ffffffffffffffffffffffffffffffffffffffff16336040516108c29796959493929190612a34565b60405180910390a2505050505050505050565b600080600090506000600190505b6001548111610937576004600082815260200190815260200160002060070160009054906101000a900460ff161561092457818061092090612635565b9250505b808061092f90612635565b9150506108e3565b508091505090565b806004600082815260200190815260200160002060070160019054906101000a900473ffffffffffffffffffffffffffffffffffffffff1673ffffffffffffffffffffffffffffffffffffffff163373ffffffffffffffffffffffffffffffffffffffff16146109e4576040517f08c379a00000000000000000000000000000000000000000000000000000000081526004016109db90612b23565b60405180910390fd5b600060046000848152602001908152602001600020905060018160070160006101000a81548160ff0219169083151502179055506000816001018190555060008160080160006101000a81548173ffffffffffffffffffffffffffffffffffffffff021916908373ffffffffffffffffffffffffffffffffffffffff1602179055508060070160019054906101000a900473ffffffffffffffffffffffffffffffffffffffff1673ffffffffffffffffffffffffffffffffffffffff16837f8ad966ba5abdcbaf43916639aa34ab4526ed857346d707cbdba2e530fd29a61c83600201846003018560040154604051610adf93929190612b43565b60405180910390a3505050565b600080600090506000600190505b6001548111610b4d576004600082815260200190815260200160002060070160009054906101000a900460ff16610b3a578180610b3690612635565b9250505b8080610b4590612635565b915050610afa565b508091505090565b806004600082815260200190815260200160002060070160019054906101000a900473ffffffffffffffffffffffffffffffffffffffff1673ffffffffffffffffffffffffffffffffffffffff163373ffffffffffffffffffffffffffffffffffffffff1614610bfa576040517f08c379a0000000000000000000000000000000000000000000000000000000008152600401610bf190612b23565b60405180910390fd5b600060046000848152602001908152602001600020905060006064600a8360050154610c269190612455565b610c309190612bb7565b905060008260070160019054906101000a900473ffffffffffffffffffffffffffffffffffffffff1673ffffffffffffffffffffffffffffffffffffffff1682604051610c7c90612c19565b60006040518083038185875af1925050503d8060008114610cb9576040519150601f19603f3d011682016040523d82523d6000602084013e610cbe565b606091505b5050905080610d02576040517f08c379a0000000000000000000000000000000000000000000000000000000008152600401610cf990612ca0565b60405180910390fd5b60018360070160006101000a81548160ff0219169083151502179055506000836001018190555060008360080160006101000a81548173ffffffffffffffffffffffffffffffffffffffff021916908373ffffffffffffffffffffffffffffffffffffffff1602179055508260070160019054906101000a900473ffffffffffffffffffffffffffffffffffffffff1673ffffffffffffffffffffffffffffffffffffffff16857f5500500dc36d57197832a349f9232afccb10244771c87aab3777d8067fb71af585600201866003018760040154604051610de693929190612b43565b60405180910390a35050505050565b6006602052806000526040600020600091509050806000015490806001015490806002015490806003018054610e2a906126ac565b80601f0160208091040260200160405190810160405280929190818152602001828054610e56906126ac565b8015610ea35780601f10610e7857610100808354040283529160200191610ea3565b820191906000526020600020905b815481529060010190602001808311610e8657829003601f168201915b505050505090806004018054610eb8906126ac565b80601f0160208091040260200160405190810160405280929190818152602001828054610ee4906126ac565b8015610f315780601f10610f0657610100808354040283529160200191610f31565b820191906000526020600020905b815481529060010190602001808311610f1457829003601f168201915b5050505050908060050154908060060154908060070160009054906101000a900473ffffffffffffffffffffffffffffffffffffffff16908060080160009054906101000a900473ffffffffffffffffffffffffffffffffffffffff16905089565b60008054906101000a900473ffffffffffffffffffffffffffffffffffffffff1673ffffffffffffffffffffffffffffffffffffffff163373ffffffffffffffffffffffffffffffffffffffff1614611021576040517f08c379a000000000000000000000000000000000000000000000000000000000815260040161101890612d32565b60405180910390fd5b6001600081548092919061103490612635565b9190505550600060015490506000604051806101600160405280838152602001600081526020018781526020018681526020018581526020018481526020014281526020016001151581526020013373ffffffffffffffffffffffffffffffffffffffff168152602001600073ffffffffffffffffffffffffffffffffffffffff1681526020016000151581525090508060046000848152602001908152602001600020600082015181600001556020820151816001015560408201518160020190816111019190612889565b5060608201518160030190816111179190612889565b506080820151816004015560a0820151816005015560c0820151816006015560e08201518160070160006101000a81548160ff0219169083151502179055506101008201518160070160016101000a81548173ffffffffffffffffffffffffffffffffffffffff021916908373ffffffffffffffffffffffffffffffffffffffff1602179055506101208201518160080160006101000a81548173ffffffffffffffffffffffffffffffffffffffff021916908373ffffffffffffffffffffffffffffffffffffffff1602179055506101408201518160080160146101000a81548160ff021916908315150217905550905050817f273327bba2f4906fdc564e5cdc7d9e9fe6a6e956ab49907eaa112e8c368104988787878733604051611242959493929190612d52565b60405180910390a2505050505050565b6000600154905090565b806004600082815260200190815260200160002060080160009054906101000a900473ffffffffffffffffffffffffffffffffffffffff1673ffffffffffffffffffffffffffffffffffffffff163373ffffffffffffffffffffffffffffffffffffffff1614611301576040517f08c379a00000000000000000000000000000000000000000000000000000000081526004016112f890612e25565b60405180910390fd5b60006004600084815260200190815260200160002090508060080160149054906101000a900460ff161561136a576040517f08c379a000000000000000000000000000000000000000000000000000000000815260040161136190612eb7565b60405180910390fd5b60008160080160009054906101000a900473ffffffffffffffffffffffffffffffffffffffff1673ffffffffffffffffffffffffffffffffffffffff1682600501546040516113b890612c19565b60006040518083038185875af1925050503d80600081146113f5576040519150601f19603f3d011682016040523d82523d6000602084013e6113fa565b606091505b505090508061143e576040517f08c379a000000000000000000000000000000000000000000000000000000000815260040161143590612f49565b60405180910390fd5b60018260080160146101000a81548160ff02191690831515021790555050505050565b60008054906101000a900473ffffffffffffffffffffffffffffffffffffffff1681565b60056020528060005260406000206000915090508060000154908060010154908060020180546114b4906126ac565b80601f01602080910402602001604051908101604052809291908181526020018280546114e0906126ac565b801561152d5780601f106115025761010080835404028352916020019161152d565b820191906000526020600020905b81548152906001019060200180831161151057829003601f168201915b505050505090806003018054611542906126ac565b80601f016020809104026020016040519081016040528092919081815260200182805461156e906126ac565b80156115bb5780601f10611590576101008083540402835291602001916115bb565b820191906000526020600020905b81548152906001019060200180831161159e57829003601f168201915b5050505050908060040154908060050154908060060154908060070160009054906101000a900473ffffffffffffffffffffffffffffffffffffffff16908060080160009054906101000a900473ffffffffffffffffffffffffffffffffffffffff16905089565b806004600082815260200190815260200160002060080160009054906101000a900473ffffffffffffffffffffffffffffffffffffffff1673ffffffffffffffffffffffffffffffffffffffff163373ffffffffffffffffffffffffffffffffffffffff16146116c8576040517f08c379a00000000000000000000000000000000000000000000000000000000081526004016116bf90612e25565b60405180910390fd5b81600062278d0060046000848152602001908152602001600020600601546116f09190612529565b905080421015611735576040517f08c379a000000000000000000000000000000000000000000000000000000000815260040161172c90612fb5565b60405180910390fd5b83670de0b6b3a764000060046000838152602001908152602001600020600401546117609190612455565b3410156117a2576040517f08c379a000000000000000000000000000000000000000000000000000000000815260040161179990612509565b60405180910390fd5b6000600460008781526020019081526020016000209050600081600101549050600360008154809291906117d590612635565b91905055506000600354905060006040518061012001604052808381526020018a8152602001848152602001856002018054611810906126ac565b80601f016020809104026020016040519081016040528092919081815260200182805461183c906126ac565b80156118895780601f1061185e57610100808354040283529160200191611889565b820191906000526020600020905b81548152906001019060200180831161186c57829003601f168201915b505050505081526020018560030180546118a2906126ac565b80601f01602080910402602001604051908101604052809291908181526020018280546118ce906126ac565b801561191b5780601f106118f05761010080835404028352916020019161191b565b820191906000526020600020905b8154815290600101906020018083116118fe57829003601f168201915b50505050508152602001856004015481526020014281526020018560070160019054906101000a900473ffffffffffffffffffffffffffffffffffffffff1673ffffffffffffffffffffffffffffffffffffffff1681526020018560080160009054906101000a900473ffffffffffffffffffffffffffffffffffffffff1673ffffffffffffffffffffffffffffffffffffffff168152509050806006600084815260200190815260200160002060008201518160000155602082015181600101556040820151816002015560608201518160030190816119fc9190612889565b506080820151816004019081611a129190612889565b5060a0820151816005015560c0820151816006015560e08201518160070160006101000a81548173ffffffffffffffffffffffffffffffffffffffff021916908373ffffffffffffffffffffffffffffffffffffffff1602179055506101008201518160080160006101000a81548173ffffffffffffffffffffffffffffffffffffffff021916908373ffffffffffffffffffffffffffffffffffffffff16021790555090505060008460070160019054906101000a900473ffffffffffffffffffffffffffffffffffffffff1673ffffffffffffffffffffffffffffffffffffffff16670de0b6b3a76400008660040154611b0e9190612455565b604051611b1a90612c19565b60006040518083038185875af1925050503d8060008114611b57576040519150601f19603f3d011682016040523d82523d6000602084013e611b5c565b606091505b5050905080611ba0576040517f08c379a0000000000000000000000000000000000000000000000000000000008152600401611b9790613021565b60405180910390fd5b8460080160009054906101000a900473ffffffffffffffffffffffffffffffffffffffff1673ffffffffffffffffffffffffffffffffffffffff168560070160019054906101000a900473ffffffffffffffffffffffffffffffffffffffff1673ffffffffffffffffffffffffffffffffffffffff168b7f46fec4e1cdf814d49fa69bc9e405d2a83fd8afb2a68993a95adbf4a5cc9dff6186896002018a6003018b60040154604051611c569493929190613041565b60405180910390a450505050505050505050565b6004602052806000526040600020600091509050806000015490806001015490806002018054611c99906126ac565b80601f0160208091040260200160405190810160405280929190818152602001828054611cc5906126ac565b8015611d125780601f10611ce757610100808354040283529160200191611d12565b820191906000526020600020905b815481529060010190602001808311611cf557829003601f168201915b505050505090806003018054611d27906126ac565b80601f0160208091040260200160405190810160405280929190818152602001828054611d53906126ac565b8015611da05780601f10611d7557610100808354040283529160200191611da0565b820191906000526020600020905b815481529060010190602001808311611d8357829003601f168201915b5050505050908060040154908060050154908060060154908060070160009054906101000a900460ff16908060070160019054906101000a900473ffffffffffffffffffffffffffffffffffffffff16908060080160009054906101000a900473ffffffffffffffffffffffffffffffffffffffff16908060080160149054906101000a900460ff1690508b565b6000604051905090565b600080fd5b600080fd5b6000819050919050565b611e5581611e42565b8114611e6057600080fd5b50565b600081359050611e7281611e4c565b92915050565b600060208284031215611e8e57611e8d611e38565b5b6000611e9c84828501611e63565b91505092915050565b611eae81611e42565b82525050565b6000602082019050611ec96000830184611ea5565b92915050565b600081519050919050565b600082825260208201905092915050565b60005b83811015611f09578082015181840152602081019050611eee565b60008484015250505050565b6000601f19601f8301169050919050565b6000611f3182611ecf565b611f3b8185611eda565b9350611f4b818560208601611eeb565b611f5481611f15565b840191505092915050565b600073ffffffffffffffffffffffffffffffffffffffff82169050919050565b6000611f8a82611f5f565b9050919050565b611f9a81611f7f565b82525050565b600061012082019050611fb6600083018c611ea5565b611fc3602083018b611ea5565b611fd0604083018a611ea5565b8181036060830152611fe28189611f26565b90508181036080830152611ff68188611f26565b905061200560a0830187611ea5565b61201260c0830186611ea5565b61201f60e0830185611f91565b61202d610100830184611f91565b9a9950505050505050505050565b600080fd5b600080fd5b7f4e487b7100000000000000000000000000000000000000000000000000000000600052604160045260246000fd5b61207d82611f15565b810181811067ffffffffffffffff8211171561209c5761209b612045565b5b80604052505050565b60006120af611e2e565b90506120bb8282612074565b919050565b600067ffffffffffffffff8211156120db576120da612045565b5b6120e482611f15565b9050602081019050919050565b82818337600083830152505050565b600061211361210e846120c0565b6120a5565b90508281526020810184848401111561212f5761212e612040565b5b61213a8482856120f1565b509392505050565b600082601f8301126121575761215661203b565b5b8135612167848260208601612100565b91505092915050565b6000806000806080858703121561218a57612189611e38565b5b600085013567ffffffffffffffff8111156121a8576121a7611e3d565b5b6121b487828801612142565b945050602085013567ffffffffffffffff8111156121d5576121d4611e3d565b5b6121e187828801612142565b93505060406121f287828801611e63565b925050606061220387828801611e63565b91505092959194509250565b600061221a82611f5f565b9050919050565b61222a8161220f565b82525050565b60006020820190506122456000830184612221565b92915050565b600061012082019050612261600083018c611ea5565b61226e602083018b611ea5565b8181036040830152612280818a611f26565b905081810360608301526122948189611f26565b90506122a36080830188611ea5565b6122b060a0830187611ea5565b6122bd60c0830186611ea5565b6122ca60e0830185611f91565b6122d8610100830184611f91565b9a9950505050505050505050565b60008115159050919050565b6122fb816122e6565b82525050565b600061016082019050612317600083018e611ea5565b612324602083018d611ea5565b8181036040830152612336818c611f26565b9050818103606083015261234a818b611f26565b9050612359608083018a611ea5565b61236660a0830189611ea5565b61237360c0830188611ea5565b61238060e08301876122f2565b61238e610100830186611f91565b61239c610120830185611f91565b6123aa6101408301846122f2565b9c9b505050505050505050505050565b7f5468697320726f6f6d206973206f636375706965640000000000000000000000600082015250565b60006123f0601583611eda565b91506123fb826123ba565b602082019050919050565b6000602082019050818103600083015261241f816123e3565b9050919050565b7f4e487b7100000000000000000000000000000000000000000000000000000000600052601160045260246000fd5b600061246082611e42565b915061246b83611e42565b925082820261247981611e42565b915082820484148315176124905761248f612426565b5b5092915050565b7f596f75206861766520696e73756666696369656e7420616d6f756e7420666f7260008201527f207468652072656e740000000000000000000000000000000000000000000000602082015250565b60006124f3602983611eda565b91506124fe82612497565b604082019050919050565b60006020820190508181036000830152612522816124e6565b9050919050565b600061253482611e42565b915061253f83611e42565b925082820190508082111561255757612556612426565b5b92915050565b7f4e6f7420656e6f7567682041677265656d656e74206665650000000000000000600082015250565b6000612593601883611eda565b915061259e8261255d565b602082019050919050565b600060208201905081810360008301526125c281612586565b9050919050565b7f41677265656d656e7420656e6465640000000000000000000000000000000000600082015250565b60006125ff600f83611eda565b915061260a826125c9565b602082019050919050565b6000602082019050818103600083015261262e816125f2565b9050919050565b600061264082611e42565b91507fffffffffffffffffffffffffffffffffffffffffffffffffffffffffffffffff820361267257612671612426565b5b600182019050919050565b7f4e487b7100000000000000000000000000000000000000000000000000000000600052602260045260246000fd5b600060028204905060018216806126c457607f821691505b6020821081036126d7576126d661267d565b5b50919050565b60008190508160005260206000209050919050565b60006020601f8301049050919050565b600082821b905092915050565b60006008830261273f7fffffffffffffffffffffffffffffffffffffffffffffffffffffffffffffffff82612702565b6127498683612702565b95508019841693508086168417925050509392505050565b6000819050919050565b600061278661278161277c84611e42565b612761565b611e42565b9050919050565b6000819050919050565b6127a08361276b565b6127b46127ac8261278d565b84845461270f565b825550505050565b600090565b6127c96127bc565b6127d4818484612797565b505050565b5b818110156127f8576127ed6000826127c1565b6001810190506127da565b5050565b601f82111561283d5761280e816126dd565b612817846126f2565b81016020851015612826578190505b61283a612832856126f2565b8301826127d9565b50505b505050565b600082821c905092915050565b600061286060001984600802612842565b1980831691505092915050565b6000612879838361284f565b9150826002028217905092915050565b61289282611ecf565b67ffffffffffffffff8111156128ab576128aa612045565b5b6128b582546126ac565b6128c08282856127fc565b600060209050601f8311600181146128f357600084156128e1578287015190505b6128eb858261286d565b865550612953565b601f198416612901866126dd565b60005b8281101561292957848901518255600182019150602085019450602081019050612904565b868310156129465784890151612942601f89168261284f565b8355505b6001600288020188555050505b505050505050565b60008154612968816126ac565b6129728186611eda565b9450600182166000811461298d57600181146129a3576129d6565b60ff1983168652811515602002860193506129d6565b6129ac856126dd565b60005b838110156129ce578154818901526001820191506020810190506129af565b808801955050505b50505092915050565b60006129fa6129f56129f084611f5f565b612761565b611f5f565b9050919050565b6000612a0c826129df565b9050919050565b6000612a1e82612a01565b9050919050565b612a2e81612a13565b82525050565b600060e082019050612a49600083018a611ea5565b8181036020830152612a5b818961295b565b90508181036040830152612a6f818861295b565b9050612a7e6060830187611ea5565b612a8b6080830186611ea5565b612a9860a0830185612a25565b612aa560c0830184612221565b98975050505050505050565b7f4f6e6c79206c616e646c6f72642063616e2063616c6c20746869732066756e6360008201527f74696f6e00000000000000000000000000000000000000000000000000000000602082015250565b6000612b0d602483611eda565b9150612b1882612ab1565b604082019050919050565b60006020820190508181036000830152612b3c81612b00565b9050919050565b60006060820190508181036000830152612b5d818661295b565b90508181036020830152612b71818561295b565b9050612b806040830184611ea5565b949350505050565b7f4e487b7100000000000000000000000000000000000000000000000000000000600052601260045260246000fd5b6000612bc282611e42565b9150612bcd83611e42565b925082612bdd57612bdc612b88565b5b828204905092915050565b600081905092915050565b50565b6000612c03600083612be8565b9150612c0e82612bf3565b600082019050919050565b6000612c2482612bf6565b9150819050919050565b7f5465726d696e6174696f6e2070656e616c7479207472616e736665722066616960008201527f6c65640000000000000000000000000000000000000000000000000000000000602082015250565b6000612c8a602383611eda565b9150612c9582612c2e565b604082019050919050565b60006020820190508181036000830152612cb981612c7d565b9050919050565b7f4f6e6c792074686520636f6e7472616374206f776e65722063616e2063616c6c60008201527f20746869732066756e6374696f6e000000000000000000000000000000000000602082015250565b6000612d1c602e83611eda565b9150612d2782612cc0565b604082019050919050565b60006020820190508181036000830152612d4b81612d0f565b9050919050565b600060a0820190508181036000830152612d6c8188611f26565b90508181036020830152612d808187611f26565b9050612d8f6040830186611ea5565b612d9c6060830185611ea5565b612da96080830184612221565b9695505050505050565b7f4f6e6c792074656e616e74732063616e2063616c6c20746869732066756e637460008201527f696f6e0000000000000000000000000000000000000000000000000000000000602082015250565b6000612e0f602383611eda565b9150612e1a82612db3565b604082019050919050565b60006020820190508181036000830152612e3e81612e02565b9050919050565b7f5365637572697479206465706f73697420616c7265616479207769746864726160008201527f776e000000000000000000000000000000000000000000000000000000000000602082015250565b6000612ea1602283611eda565b9150612eac82612e45565b604082019050919050565b60006020820190508181036000830152612ed081612e94565b9050919050565b7f5365637572697479206465706f736974207769746864726177616c206661696c60008201527f6564000000000000000000000000000000000000000000000000000000000000602082015250565b6000612f33602283611eda565b9150612f3e82612ed7565b604082019050919050565b60006020820190508181036000830152612f6281612f26565b9050919050565b7f54696d6573205570000000000000000000000000000000000000000000000000600082015250565b6000612f9f600883611eda565b9150612faa82612f69565b602082019050919050565b60006020820190508181036000830152612fce81612f92565b9050919050565b7f52656e74207061796d656e74206661696c656400000000000000000000000000600082015250565b600061300b601383611eda565b915061301682612fd5565b602082019050919050565b6000602082019050818103600083015261303a81612ffe565b9050919050565b60006080820190506130566000830187611ea5565b8181036020830152613068818661295b565b9050818103604083015261307c818561295b565b905061308b6060830184611ea5565b9594505050505056fea26469706673582212208597ffe9d68cc9fa8aeabf7105d02059bd0dd107904dec1a36f29be46a5ce59e64736f6c634300081a0033",
          "opcodes": "PUSH1 0x80 PUSH1 0x40 MSTORE CALLVALUE DUP1 ISZERO PUSH1 0xF JUMPI PUSH1 0x0 DUP1 REVERT JUMPDEST POP CALLER PUSH1 0x0 DUP1 PUSH2 0x100 EXP DUP2 SLOAD DUP2 PUSH20 0xFFFFFFFFFFFFFFFFFFFFFFFFFFFFFFFFFFFFFFFF MUL NOT AND SWAP1 DUP4 PUSH20 0xFFFFFFFFFFFFFFFFFFFFFFFFFFFFFFFFFFFFFFFF AND MUL OR SWAP1 SSTORE POP PUSH2 0x30CA DUP1 PUSH2 0x5F PUSH1 0x0 CODECOPY PUSH1 0x0 RETURN INVALID PUSH1 0x80 PUSH1 0x40 MSTORE PUSH1 0x4 CALLDATASIZE LT PUSH2 0xC2 JUMPI PUSH1 0x0 CALLDATALOAD PUSH1 0xE0 SHR DUP1 PUSH4 0x63E475BD GT PUSH2 0x7F JUMPI DUP1 PUSH4 0xCE606EE0 GT PUSH2 0x59 JUMPI DUP1 PUSH4 0xCE606EE0 EQ PUSH2 0x24D JUMPI DUP1 PUSH4 0xD8B4AC9D EQ PUSH2 0x278 JUMPI DUP1 PUSH4 0xD9E8843F EQ PUSH2 0x2BD JUMPI DUP1 PUSH4 0xF673E2C7 EQ PUSH2 0x2D9 JUMPI PUSH2 0xC2 JUMP JUMPDEST DUP1 PUSH4 0x63E475BD EQ PUSH2 0x1D0 JUMPI DUP1 PUSH4 0x65BF01D6 EQ PUSH2 0x1F9 JUMPI DUP1 PUSH4 0x98D380E0 EQ PUSH2 0x224 JUMPI PUSH2 0xC2 JUMP JUMPDEST DUP1 PUSH4 0x3742DE0 EQ PUSH2 0xC7 JUMPI DUP1 PUSH4 0xE3ABB7F EQ PUSH2 0xE3 JUMPI DUP1 PUSH4 0x16ABB8A1 EQ PUSH2 0x10E JUMPI DUP1 PUSH4 0x24466976 EQ PUSH2 0x137 JUMPI DUP1 PUSH4 0x4F5E4428 EQ PUSH2 0x162 JUMPI DUP1 PUSH4 0x5AF57A8C EQ PUSH2 0x18B JUMPI JUMPDEST PUSH1 0x0 DUP1 REVERT JUMPDEST PUSH2 0xE1 PUSH1 0x4 DUP1 CALLDATASIZE SUB DUP2 ADD SWAP1 PUSH2 0xDC SWAP2 SWAP1 PUSH2 0x1E78 JUMP JUMPDEST PUSH2 0x320 JUMP JUMPDEST STOP JUMPDEST CALLVALUE DUP1 ISZERO PUSH2 0xEF JUMPI PUSH1 0x0 DUP1 REVERT JUMPDEST POP PUSH2 0xF8 PUSH2 0x8D5 JUMP JUMPDEST PUSH1 0x40 MLOAD PUSH2 0x105 SWAP2 SWAP1 PUSH2 0x1EB4 JUMP JUMPDEST PUSH1 0x40 MLOAD DUP1 SWAP2 SUB SWAP1 RETURN JUMPDEST CALLVALUE DUP1 ISZERO PUSH2 0x11A JUMPI PUSH1 0x0 DUP1 REVERT JUMPDEST POP PUSH2 0x135 PUSH1 0x4 DUP1 CALLDATASIZE SUB DUP2 ADD SWAP1 PUSH2 0x130 SWAP2 SWAP1 PUSH2 0x1E78 JUMP JUMPDEST PUSH2 0x93F JUMP JUMPDEST STOP JUMPDEST CALLVALUE DUP1 ISZERO PUSH2 0x143 JUMPI PUSH1 0x0 DUP1 REVERT JUMPDEST POP PUSH2 0x14C PUSH2 0xAEC JUMP JUMPDEST PUSH1 0x40 MLOAD PUSH2 0x159 SWAP2 SWAP1 PUSH2 0x1EB4 JUMP JUMPDEST PUSH1 0x40 MLOAD DUP1 SWAP2 SUB SWAP1 RETURN JUMPDEST CALLVALUE DUP1 ISZERO PUSH2 0x16E JUMPI PUSH1 0x0 DUP1 REVERT JUMPDEST POP PUSH2 0x189 PUSH1 0x4 DUP1 CALLDATASIZE SUB DUP2 ADD SWAP1 PUSH2 0x184 SWAP2 SWAP1 PUSH2 0x1E78 JUMP JUMPDEST PUSH2 0xB55 JUMP JUMPDEST STOP JUMPDEST CALLVALUE DUP1 ISZERO PUSH2 0x197 JUMPI PUSH1 0x0 DUP1 REVERT JUMPDEST POP PUSH2 0x1B2 PUSH1 0x4 DUP1 CALLDATASIZE SUB DUP2 ADD SWAP1 PUSH2 0x1AD SWAP2 SWAP1 PUSH2 0x1E78 JUMP JUMPDEST PUSH2 0xDF5 JUMP JUMPDEST PUSH1 0x40 MLOAD PUSH2 0x1C7 SWAP10 SWAP9 SWAP8 SWAP7 SWAP6 SWAP5 SWAP4 SWAP3 SWAP2 SWAP1 PUSH2 0x1FA0 JUMP JUMPDEST PUSH1 0x40 MLOAD DUP1 SWAP2 SUB SWAP1 RETURN JUMPDEST CALLVALUE DUP1 ISZERO PUSH2 0x1DC JUMPI PUSH1 0x0 DUP1 REVERT JUMPDEST POP PUSH2 0x1F7 PUSH1 0x4 DUP1 CALLDATASIZE SUB DUP2 ADD SWAP1 PUSH2 0x1F2 SWAP2 SWAP1 PUSH2 0x2170 JUMP JUMPDEST PUSH2 0xF93 JUMP JUMPDEST STOP JUMPDEST CALLVALUE DUP1 ISZERO PUSH2 0x205 JUMPI PUSH1 0x0 DUP1 REVERT JUMPDEST POP PUSH2 0x20E PUSH2 0x1252 JUMP JUMPDEST PUSH1 0x40 MLOAD PUSH2 0x21B SWAP2 SWAP1 PUSH2 0x1EB4 JUMP JUMPDEST PUSH1 0x40 MLOAD DUP1 SWAP2 SUB SWAP1 RETURN JUMPDEST CALLVALUE DUP1 ISZERO PUSH2 0x230 JUMPI PUSH1 0x0 DUP1 REVERT JUMPDEST POP PUSH2 0x24B PUSH1 0x4 DUP1 CALLDATASIZE SUB DUP2 ADD SWAP1 PUSH2 0x246 SWAP2 SWAP1 PUSH2 0x1E78 JUMP JUMPDEST PUSH2 0x125C JUMP JUMPDEST STOP JUMPDEST CALLVALUE DUP1 ISZERO PUSH2 0x259 JUMPI PUSH1 0x0 DUP1 REVERT JUMPDEST POP PUSH2 0x262 PUSH2 0x1461 JUMP JUMPDEST PUSH1 0x40 MLOAD PUSH2 0x26F SWAP2 SWAP1 PUSH2 0x2230 JUMP JUMPDEST PUSH1 0x40 MLOAD DUP1 SWAP2 SUB SWAP1 RETURN JUMPDEST CALLVALUE DUP1 ISZERO PUSH2 0x284 JUMPI PUSH1 0x0 DUP1 REVERT JUMPDEST POP PUSH2 0x29F PUSH1 0x4 DUP1 CALLDATASIZE SUB DUP2 ADD SWAP1 PUSH2 0x29A SWAP2 SWAP1 PUSH2 0x1E78 JUMP JUMPDEST PUSH2 0x1485 JUMP JUMPDEST PUSH1 0x40 MLOAD PUSH2 0x2B4 SWAP10 SWAP9 SWAP8 SWAP7 SWAP6 SWAP5 SWAP4 SWAP3 SWAP2 SWAP1 PUSH2 0x224B JUMP JUMPDEST PUSH1 0x40 MLOAD DUP1 SWAP2 SUB SWAP1 RETURN JUMPDEST PUSH2 0x2D7 PUSH1 0x4 DUP1 CALLDATASIZE SUB DUP2 ADD SWAP1 PUSH2 0x2D2 SWAP2 SWAP1 PUSH2 0x1E78 JUMP JUMPDEST PUSH2 0x1623 JUMP JUMPDEST STOP JUMPDEST CALLVALUE DUP1 ISZERO PUSH2 0x2E5 JUMPI PUSH1 0x0 DUP1 REVERT JUMPDEST POP PUSH2 0x300 PUSH1 0x4 DUP1 CALLDATASIZE SUB DUP2 ADD SWAP1 PUSH2 0x2FB SWAP2 SWAP1 PUSH2 0x1E78 JUMP JUMPDEST PUSH2 0x1C6A JUMP JUMPDEST PUSH1 0x40 MLOAD PUSH2 0x317 SWAP12 SWAP11 SWAP10 SWAP9 SWAP8 SWAP7 SWAP6 SWAP5 SWAP4 SWAP3 SWAP2 SWAP1 PUSH2 0x2301 JUMP JUMPDEST PUSH1 0x40 MLOAD DUP1 SWAP2 SUB SWAP1 RETURN JUMPDEST DUP1 PUSH1 0x4 PUSH1 0x0 DUP3 DUP2 MSTORE PUSH1 0x20 ADD SWAP1 DUP2 MSTORE PUSH1 0x20 ADD PUSH1 0x0 KECCAK256 PUSH1 0x7 ADD PUSH1 0x0 SWAP1 SLOAD SWAP1 PUSH2 0x100 EXP SWAP1 DIV PUSH1 0xFF AND PUSH2 0x384 JUMPI PUSH1 0x40 MLOAD PUSH32 0x8C379A000000000000000000000000000000000000000000000000000000000 DUP2 MSTORE PUSH1 0x4 ADD PUSH2 0x37B SWAP1 PUSH2 0x2406 JUMP JUMPDEST PUSH1 0x40 MLOAD DUP1 SWAP2 SUB SWAP1 REVERT JUMPDEST DUP2 PUSH8 0xDE0B6B3A7640000 PUSH1 0x4 PUSH1 0x0 DUP4 DUP2 MSTORE PUSH1 0x20 ADD SWAP1 DUP2 MSTORE PUSH1 0x20 ADD PUSH1 0x0 KECCAK256 PUSH1 0x4 ADD SLOAD PUSH2 0x3AF SWAP2 SWAP1 PUSH2 0x2455 JUMP JUMPDEST CALLVALUE LT ISZERO PUSH2 0x3F1 JUMPI PUSH1 0x40 MLOAD PUSH32 0x8C379A000000000000000000000000000000000000000000000000000000000 DUP2 MSTORE PUSH1 0x4 ADD PUSH2 0x3E8 SWAP1 PUSH2 0x2509 JUMP JUMPDEST PUSH1 0x40 MLOAD DUP1 SWAP2 SUB SWAP1 REVERT JUMPDEST DUP3 PUSH1 0x0 PUSH8 0xDE0B6B3A7640000 PUSH1 0x4 PUSH1 0x0 DUP5 DUP2 MSTORE PUSH1 0x20 ADD SWAP1 DUP2 MSTORE PUSH1 0x20 ADD PUSH1 0x0 KECCAK256 PUSH1 0x5 ADD SLOAD PUSH1 0x4 PUSH1 0x0 DUP6 DUP2 MSTORE PUSH1 0x20 ADD SWAP1 DUP2 MSTORE PUSH1 0x20 ADD PUSH1 0x0 KECCAK256 PUSH1 0x4 ADD SLOAD PUSH2 0x435 SWAP2 SWAP1 PUSH2 0x2529 JUMP JUMPDEST PUSH2 0x43F SWAP2 SWAP1 PUSH2 0x2455 JUMP JUMPDEST SWAP1 POP DUP1 CALLVALUE LT ISZERO PUSH2 0x484 JUMPI PUSH1 0x40 MLOAD PUSH32 0x8C379A000000000000000000000000000000000000000000000000000000000 DUP2 MSTORE PUSH1 0x4 ADD PUSH2 0x47B SWAP1 PUSH2 0x25A9 JUMP JUMPDEST PUSH1 0x40 MLOAD DUP1 SWAP2 SUB SWAP1 REVERT JUMPDEST DUP5 PUSH1 0x0 PUSH1 0x5 PUSH1 0x0 PUSH1 0x4 PUSH1 0x0 DUP6 DUP2 MSTORE PUSH1 0x20 ADD SWAP1 DUP2 MSTORE PUSH1 0x20 ADD PUSH1 0x0 KECCAK256 PUSH1 0x1 ADD SLOAD DUP2 MSTORE PUSH1 0x20 ADD SWAP1 DUP2 MSTORE PUSH1 0x20 ADD PUSH1 0x0 KECCAK256 PUSH1 0x6 ADD SLOAD GT PUSH2 0x4F4 JUMPI PUSH1 0x40 MLOAD PUSH32 0x8C379A000000000000000000000000000000000000000000000000000000000 DUP2 MSTORE PUSH1 0x4 ADD PUSH2 0x4EB SWAP1 PUSH2 0x2615 JUMP JUMPDEST PUSH1 0x40 MLOAD DUP1 SWAP2 SUB SWAP1 REVERT JUMPDEST PUSH1 0x2 PUSH1 0x0 DUP2 SLOAD DUP1 SWAP3 SWAP2 SWAP1 PUSH2 0x507 SWAP1 PUSH2 0x2635 JUMP JUMPDEST SWAP2 SWAP1 POP SSTORE POP PUSH1 0x0 PUSH1 0x2 SLOAD SWAP1 POP PUSH1 0x0 PUSH1 0x4 PUSH1 0x0 DUP10 DUP2 MSTORE PUSH1 0x20 ADD SWAP1 DUP2 MSTORE PUSH1 0x20 ADD PUSH1 0x0 KECCAK256 SWAP1 POP PUSH1 0x0 PUSH1 0x40 MLOAD DUP1 PUSH2 0x120 ADD PUSH1 0x40 MSTORE DUP1 DUP11 DUP2 MSTORE PUSH1 0x20 ADD DUP5 DUP2 MSTORE PUSH1 0x20 ADD DUP4 PUSH1 0x2 ADD DUP1 SLOAD PUSH2 0x553 SWAP1 PUSH2 0x26AC JUMP JUMPDEST DUP1 PUSH1 0x1F ADD PUSH1 0x20 DUP1 SWAP2 DIV MUL PUSH1 0x20 ADD PUSH1 0x40 MLOAD SWAP1 DUP2 ADD PUSH1 0x40 MSTORE DUP1 SWAP3 SWAP2 SWAP1 DUP2 DUP2 MSTORE PUSH1 0x20 ADD DUP3 DUP1 SLOAD PUSH2 0x57F SWAP1 PUSH2 0x26AC JUMP JUMPDEST DUP1 ISZERO PUSH2 0x5CC JUMPI DUP1 PUSH1 0x1F LT PUSH2 0x5A1 JUMPI PUSH2 0x100 DUP1 DUP4 SLOAD DIV MUL DUP4 MSTORE SWAP2 PUSH1 0x20 ADD SWAP2 PUSH2 0x5CC JUMP JUMPDEST DUP3 ADD SWAP2 SWAP1 PUSH1 0x0 MSTORE PUSH1 0x20 PUSH1 0x0 KECCAK256 SWAP1 JUMPDEST DUP2 SLOAD DUP2 MSTORE SWAP1 PUSH1 0x1 ADD SWAP1 PUSH1 0x20 ADD DUP1 DUP4 GT PUSH2 0x5AF JUMPI DUP3 SWAP1 SUB PUSH1 0x1F AND DUP3 ADD SWAP2 JUMPDEST POP POP POP POP POP DUP2 MSTORE PUSH1 0x20 ADD DUP4 PUSH1 0x3 ADD DUP1 SLOAD PUSH2 0x5E5 SWAP1 PUSH2 0x26AC JUMP JUMPDEST DUP1 PUSH1 0x1F ADD PUSH1 0x20 DUP1 SWAP2 DIV MUL PUSH1 0x20 ADD PUSH1 0x40 MLOAD SWAP1 DUP2 ADD PUSH1 0x40 MSTORE DUP1 SWAP3 SWAP2 SWAP1 DUP2 DUP2 MSTORE PUSH1 0x20 ADD DUP3 DUP1 SLOAD PUSH2 0x611 SWAP1 PUSH2 0x26AC JUMP JUMPDEST DUP1 ISZERO PUSH2 0x65E JUMPI DUP1 PUSH1 0x1F LT PUSH2 0x633 JUMPI PUSH2 0x100 DUP1 DUP4 SLOAD DIV MUL DUP4 MSTORE SWAP2 PUSH1 0x20 ADD SWAP2 PUSH2 0x65E JUMP JUMPDEST DUP3 ADD SWAP2 SWAP1 PUSH1 0x0 MSTORE PUSH1 0x20 PUSH1 0x0 KECCAK256 SWAP1 JUMPDEST DUP2 SLOAD DUP2 MSTORE SWAP1 PUSH1 0x1 ADD SWAP1 PUSH1 0x20 ADD DUP1 DUP4 GT PUSH2 0x641 JUMPI DUP3 SWAP1 SUB PUSH1 0x1F AND DUP3 ADD SWAP2 JUMPDEST POP POP POP POP POP DUP2 MSTORE PUSH1 0x20 ADD DUP4 PUSH1 0x4 ADD SLOAD DUP2 MSTORE PUSH1 0x20 ADD DUP4 PUSH1 0x5 ADD SLOAD DUP2 MSTORE PUSH1 0x20 ADD TIMESTAMP DUP2 MSTORE PUSH1 0x20 ADD DUP4 PUSH1 0x7 ADD PUSH1 0x1 SWAP1 SLOAD SWAP1 PUSH2 0x100 EXP SWAP1 DIV PUSH20 0xFFFFFFFFFFFFFFFFFFFFFFFFFFFFFFFFFFFFFFFF AND PUSH20 0xFFFFFFFFFFFFFFFFFFFFFFFFFFFFFFFFFFFFFFFF AND DUP2 MSTORE PUSH1 0x20 ADD CALLER PUSH20 0xFFFFFFFFFFFFFFFFFFFFFFFFFFFFFFFFFFFFFFFF AND DUP2 MSTORE POP SWAP1 POP DUP1 PUSH1 0x5 PUSH1 0x0 DUP6 DUP2 MSTORE PUSH1 0x20 ADD SWAP1 DUP2 MSTORE PUSH1 0x20 ADD PUSH1 0x0 KECCAK256 PUSH1 0x0 DUP3 ADD MLOAD DUP2 PUSH1 0x0 ADD SSTORE PUSH1 0x20 DUP3 ADD MLOAD DUP2 PUSH1 0x1 ADD SSTORE PUSH1 0x40 DUP3 ADD MLOAD DUP2 PUSH1 0x2 ADD SWAP1 DUP2 PUSH2 0x71B SWAP2 SWAP1 PUSH2 0x2889 JUMP JUMPDEST POP PUSH1 0x60 DUP3 ADD MLOAD DUP2 PUSH1 0x3 ADD SWAP1 DUP2 PUSH2 0x731 SWAP2 SWAP1 PUSH2 0x2889 JUMP JUMPDEST POP PUSH1 0x80 DUP3 ADD MLOAD DUP2 PUSH1 0x4 ADD SSTORE PUSH1 0xA0 DUP3 ADD MLOAD DUP2 PUSH1 0x5 ADD SSTORE PUSH1 0xC0 DUP3 ADD MLOAD DUP2 PUSH1 0x6 ADD SSTORE PUSH1 0xE0 DUP3 ADD MLOAD DUP2 PUSH1 0x7 ADD PUSH1 0x0 PUSH2 0x100 EXP DUP2 SLOAD DUP2 PUSH20 0xFFFFFFFFFFFFFFFFFFFFFFFFFFFFFFFFFFFFFFFF MUL NOT AND SWAP1 DUP4 PUSH20 0xFFFFFFFFFFFFFFFFFFFFFFFFFFFFFFFFFFFFFFFF AND MUL OR SWAP1 SSTORE POP PUSH2 0x100 DUP3 ADD MLOAD DUP2 PUSH1 0x8 ADD PUSH1 0x0 PUSH2 0x100 EXP DUP2 SLOAD DUP2 PUSH20 0xFFFFFFFFFFFFFFFFFFFFFFFFFFFFFFFFFFFFFFFF MUL NOT AND SWAP1 DUP4 PUSH20 0xFFFFFFFFFFFFFFFFFFFFFFFFFFFFFFFFFFFFFFFF AND MUL OR SWAP1 SSTORE POP SWAP1 POP POP DUP3 DUP3 PUSH1 0x1 ADD DUP2 SWAP1 SSTORE POP CALLER DUP3 PUSH1 0x8 ADD PUSH1 0x0 PUSH2 0x100 EXP DUP2 SLOAD DUP2 PUSH20 0xFFFFFFFFFFFFFFFFFFFFFFFFFFFFFFFFFFFFFFFF MUL NOT AND SWAP1 DUP4 PUSH20 0xFFFFFFFFFFFFFFFFFFFFFFFFFFFFFFFFFFFFFFFF AND MUL OR SWAP1 SSTORE POP PUSH1 0x0 DUP3 PUSH1 0x7 ADD PUSH1 0x0 PUSH2 0x100 EXP DUP2 SLOAD DUP2 PUSH1 0xFF MUL NOT AND SWAP1 DUP4 ISZERO ISZERO MUL OR SWAP1 SSTORE POP TIMESTAMP DUP3 PUSH1 0x6 ADD DUP2 SWAP1 SSTORE POP DUP3 PUSH32 0xB17166C219038E71B7274024B7F3D8D6000F45A3E5BE9A002EE9D052C4761F29 DUP11 DUP5 PUSH1 0x2 ADD DUP6 PUSH1 0x3 ADD DUP7 PUSH1 0x4 ADD SLOAD DUP8 PUSH1 0x5 ADD SLOAD DUP9 PUSH1 0x7 ADD PUSH1 0x1 SWAP1 SLOAD SWAP1 PUSH2 0x100 EXP SWAP1 DIV PUSH20 0xFFFFFFFFFFFFFFFFFFFFFFFFFFFFFFFFFFFFFFFF AND CALLER PUSH1 0x40 MLOAD PUSH2 0x8C2 SWAP8 SWAP7 SWAP6 SWAP5 SWAP4 SWAP3 SWAP2 SWAP1 PUSH2 0x2A34 JUMP JUMPDEST PUSH1 0x40 MLOAD DUP1 SWAP2 SUB SWAP1 LOG2 POP POP POP POP POP POP POP POP POP JUMP JUMPDEST PUSH1 0x0 DUP1 PUSH1 0x0 SWAP1 POP PUSH1 0x0 PUSH1 0x1 SWAP1 POP JUMPDEST PUSH1 0x1 SLOAD DUP2 GT PUSH2 0x937 JUMPI PUSH1 0x4 PUSH1 0x0 DUP3 DUP2 MSTORE PUSH1 0x20 ADD SWAP1 DUP2 MSTORE PUSH1 0x20 ADD PUSH1 0x0 KECCAK256 PUSH1 0x7 ADD PUSH1 0x0 SWAP1 SLOAD SWAP1 PUSH2 0x100 EXP SWAP1 DIV PUSH1 0xFF AND ISZERO PUSH2 0x924 JUMPI DUP2 DUP1 PUSH2 0x920 SWAP1 PUSH2 0x2635 JUMP JUMPDEST SWAP3 POP POP JUMPDEST DUP1 DUP1 PUSH2 0x92F SWAP1 PUSH2 0x2635 JUMP JUMPDEST SWAP2 POP POP PUSH2 0x8E3 JUMP JUMPDEST POP DUP1 SWAP2 POP POP SWAP1 JUMP JUMPDEST DUP1 PUSH1 0x4 PUSH1 0x0 DUP3 DUP2 MSTORE PUSH1 0x20 ADD SWAP1 DUP2 MSTORE PUSH1 0x20 ADD PUSH1 0x0 KECCAK256 PUSH1 0x7 ADD PUSH1 0x1 SWAP1 SLOAD SWAP1 PUSH2 0x100 EXP SWAP1 DIV PUSH20 0xFFFFFFFFFFFFFFFFFFFFFFFFFFFFFFFFFFFFFFFF AND PUSH20 0xFFFFFFFFFFFFFFFFFFFFFFFFFFFFFFFFFFFFFFFF AND CALLER PUSH20 0xFFFFFFFFFFFFFFFFFFFFFFFFFFFFFFFFFFFFFFFF AND EQ PUSH2 0x9E4 JUMPI PUSH1 0x40 MLOAD PUSH32 0x8C379A000000000000000000000000000000000000000000000000000000000 DUP2 MSTORE PUSH1 0x4 ADD PUSH2 0x9DB SWAP1 PUSH2 0x2B23 JUMP JUMPDEST PUSH1 0x40 MLOAD DUP1 SWAP2 SUB SWAP1 REVERT JUMPDEST PUSH1 0x0 PUSH1 0x4 PUSH1 0x0 DUP5 DUP2 MSTORE PUSH1 0x20 ADD SWAP1 DUP2 MSTORE PUSH1 0x20 ADD PUSH1 0x0 KECCAK256 SWAP1 POP PUSH1 0x1 DUP2 PUSH1 0x7 ADD PUSH1 0x0 PUSH2 0x100 EXP DUP2 SLOAD DUP2 PUSH1 0xFF MUL NOT AND SWAP1 DUP4 ISZERO ISZERO MUL OR SWAP1 SSTORE POP PUSH1 0x0 DUP2 PUSH1 0x1 ADD DUP2 SWAP1 SSTORE POP PUSH1 0x0 DUP2 PUSH1 0x8 ADD PUSH1 0x0 PUSH2 0x100 EXP DUP2 SLOAD DUP2 PUSH20 0xFFFFFFFFFFFFFFFFFFFFFFFFFFFFFFFFFFFFFFFF MUL NOT AND SWAP1 DUP4 PUSH20 0xFFFFFFFFFFFFFFFFFFFFFFFFFFFFFFFFFFFFFFFF AND MUL OR SWAP1 SSTORE POP DUP1 PUSH1 0x7 ADD PUSH1 0x1 SWAP1 SLOAD SWAP1 PUSH2 0x100 EXP SWAP1 DIV PUSH20 0xFFFFFFFFFFFFFFFFFFFFFFFFFFFFFFFFFFFFFFFF AND PUSH20 0xFFFFFFFFFFFFFFFFFFFFFFFFFFFFFFFFFFFFFFFF AND DUP4 PUSH32 0x8AD966BA5ABDCBAF43916639AA34AB4526ED857346D707CBDBA2E530FD29A61C DUP4 PUSH1 0x2 ADD DUP5 PUSH1 0x3 ADD DUP6 PUSH1 0x4 ADD SLOAD PUSH1 0x40 MLOAD PUSH2 0xADF SWAP4 SWAP3 SWAP2 SWAP1 PUSH2 0x2B43 JUMP JUMPDEST PUSH1 0x40 MLOAD DUP1 SWAP2 SUB SWAP1 LOG3 POP POP POP JUMP JUMPDEST PUSH1 0x0 DUP1 PUSH1 0x0 SWAP1 POP PUSH1 0x0 PUSH1 0x1 SWAP1 POP JUMPDEST PUSH1 0x1 SLOAD DUP2 GT PUSH2 0xB4D JUMPI PUSH1 0x4 PUSH1 0x0 DUP3 DUP2 MSTORE PUSH1 0x20 ADD SWAP1 DUP2 MSTORE PUSH1 0x20 ADD PUSH1 0x0 KECCAK256 PUSH1 0x7 ADD PUSH1 0x0 SWAP1 SLOAD SWAP1 PUSH2 0x100 EXP SWAP1 DIV PUSH1 0xFF AND PUSH2 0xB3A JUMPI DUP2 DUP1 PUSH2 0xB36 SWAP1 PUSH2 0x2635 JUMP JUMPDEST SWAP3 POP POP JUMPDEST DUP1 DUP1 PUSH2 0xB45 SWAP1 PUSH2 0x2635 JUMP JUMPDEST SWAP2 POP POP PUSH2 0xAFA JUMP JUMPDEST POP DUP1 SWAP2 POP POP SWAP1 JUMP JUMPDEST DUP1 PUSH1 0x4 PUSH1 0x0 DUP3 DUP2 MSTORE PUSH1 0x20 ADD SWAP1 DUP2 MSTORE PUSH1 0x20 ADD PUSH1 0x0 KECCAK256 PUSH1 0x7 ADD PUSH1 0x1 SWAP1 SLOAD SWAP1 PUSH2 0x100 EXP SWAP1 DIV PUSH20 0xFFFFFFFFFFFFFFFFFFFFFFFFFFFFFFFFFFFFFFFF AND PUSH20 0xFFFFFFFFFFFFFFFFFFFFFFFFFFFFFFFFFFFFFFFF AND CALLER PUSH20 0xFFFFFFFFFFFFFFFFFFFFFFFFFFFFFFFFFFFFFFFF AND EQ PUSH2 0xBFA JUMPI PUSH1 0x40 MLOAD PUSH32 0x8C379A000000000000000000000000000000000000000000000000000000000 DUP2 MSTORE PUSH1 0x4 ADD PUSH2 0xBF1 SWAP1 PUSH2 0x2B23 JUMP JUMPDEST PUSH1 0x40 MLOAD DUP1 SWAP2 SUB SWAP1 REVERT JUMPDEST PUSH1 0x0 PUSH1 0x4 PUSH1 0x0 DUP5 DUP2 MSTORE PUSH1 0x20 ADD SWAP1 DUP2 MSTORE PUSH1 0x20 ADD PUSH1 0x0 KECCAK256 SWAP1 POP PUSH1 0x0 PUSH1 0x64 PUSH1 0xA DUP4 PUSH1 0x5 ADD SLOAD PUSH2 0xC26 SWAP2 SWAP1 PUSH2 0x2455 JUMP JUMPDEST PUSH2 0xC30 SWAP2 SWAP1 PUSH2 0x2BB7 JUMP JUMPDEST SWAP1 POP PUSH1 0x0 DUP3 PUSH1 0x7 ADD PUSH1 0x1 SWAP1 SLOAD SWAP1 PUSH2 0x100 EXP SWAP1 DIV PUSH20 0xFFFFFFFFFFFFFFFFFFFFFFFFFFFFFFFFFFFFFFFF AND PUSH20 0xFFFFFFFFFFFFFFFFFFFFFFFFFFFFFFFFFFFFFFFF AND DUP3 PUSH1 0x40 MLOAD PUSH2 0xC7C SWAP1 PUSH2 0x2C19 JUMP JUMPDEST PUSH1 0x0 PUSH1 0x40 MLOAD DUP1 DUP4 SUB DUP2 DUP6 DUP8 GAS CALL SWAP3 POP POP POP RETURNDATASIZE DUP1 PUSH1 0x0 DUP2 EQ PUSH2 0xCB9 JUMPI PUSH1 0x40 MLOAD SWAP2 POP PUSH1 0x1F NOT PUSH1 0x3F RETURNDATASIZE ADD AND DUP3 ADD PUSH1 0x40 MSTORE RETURNDATASIZE DUP3 MSTORE RETURNDATASIZE PUSH1 0x0 PUSH1 0x20 DUP5 ADD RETURNDATACOPY PUSH2 0xCBE JUMP JUMPDEST PUSH1 0x60 SWAP2 POP JUMPDEST POP POP SWAP1 POP DUP1 PUSH2 0xD02 JUMPI PUSH1 0x40 MLOAD PUSH32 0x8C379A000000000000000000000000000000000000000000000000000000000 DUP2 MSTORE PUSH1 0x4 ADD PUSH2 0xCF9 SWAP1 PUSH2 0x2CA0 JUMP JUMPDEST PUSH1 0x40 MLOAD DUP1 SWAP2 SUB SWAP1 REVERT JUMPDEST PUSH1 0x1 DUP4 PUSH1 0x7 ADD PUSH1 0x0 PUSH2 0x100 EXP DUP2 SLOAD DUP2 PUSH1 0xFF MUL NOT AND SWAP1 DUP4 ISZERO ISZERO MUL OR SWAP1 SSTORE POP PUSH1 0x0 DUP4 PUSH1 0x1 ADD DUP2 SWAP1 SSTORE POP PUSH1 0x0 DUP4 PUSH1 0x8 ADD PUSH1 0x0 PUSH2 0x100 EXP DUP2 SLOAD DUP2 PUSH20 0xFFFFFFFFFFFFFFFFFFFFFFFFFFFFFFFFFFFFFFFF MUL NOT AND SWAP1 DUP4 PUSH20 0xFFFFFFFFFFFFFFFFFFFFFFFFFFFFFFFFFFFFFFFF AND MUL OR SWAP1 SSTORE POP DUP3 PUSH1 0x7 ADD PUSH1 0x1 SWAP1 SLOAD SWAP1 PUSH2 0x100 EXP SWAP1 DIV PUSH20 0xFFFFFFFFFFFFFFFFFFFFFFFFFFFFFFFFFFFFFFFF AND PUSH20 0xFFFFFFFFFFFFFFFFFFFFFFFFFFFFFFFFFFFFFFFF AND DUP6 PUSH32 0x5500500DC36D57197832A349F9232AFCCB10244771C87AAB3777D8067FB71AF5 DUP6 PUSH1 0x2 ADD DUP7 PUSH1 0x3 ADD DUP8 PUSH1 0x4 ADD SLOAD PUSH1 0x40 MLOAD PUSH2 0xDE6 SWAP4 SWAP3 SWAP2 SWAP1 PUSH2 0x2B43 JUMP JUMPDEST PUSH1 0x40 MLOAD DUP1 SWAP2 SUB SWAP1 LOG3 POP POP POP POP POP JUMP JUMPDEST PUSH1 0x6 PUSH1 0x20 MSTORE DUP1 PUSH1 0x0 MSTORE PUSH1 0x40 PUSH1 0x0 KECCAK256 PUSH1 0x0 SWAP2 POP SWAP1 POP DUP1 PUSH1 0x0 ADD SLOAD SWAP1 DUP1 PUSH1 0x1 ADD SLOAD SWAP1 DUP1 PUSH1 0x2 ADD SLOAD SWAP1 DUP1 PUSH1 0x3 ADD DUP1 SLOAD PUSH2 0xE2A SWAP1 PUSH2 0x26AC JUMP JUMPDEST DUP1 PUSH1 0x1F ADD PUSH1 0x20 DUP1 SWAP2 DIV MUL PUSH1 0x20 ADD PUSH1 0x40 MLOAD SWAP1 DUP2 ADD PUSH1 0x40 MSTORE DUP1 SWAP3 SWAP2 SWAP1 DUP2 DUP2 MSTORE PUSH1 0x20 ADD DUP3 DUP1 SLOAD PUSH2 0xE56 SWAP1 PUSH2 0x26AC JUMP JUMPDEST DUP1 ISZERO PUSH2 0xEA3 JUMPI DUP1 PUSH1 0x1F LT PUSH2 0xE78 JUMPI PUSH2 0x100 DUP1 DUP4 SLOAD DIV MUL DUP4 MSTORE SWAP2 PUSH1 0x20 ADD SWAP2 PUSH2 0xEA3 JUMP JUMPDEST DUP3 ADD SWAP2 SWAP1 PUSH1 0x0 MSTORE PUSH1 0x20 PUSH1 0x0 KECCAK256 SWAP1 JUMPDEST DUP2 SLOAD DUP2 MSTORE SWAP1 PUSH1 0x1 ADD SWAP1 PUSH1 0x20 ADD DUP1 DUP4 GT PUSH2 0xE86 JUMPI DUP3 SWAP1 SUB PUSH1 0x1F AND DUP3 ADD SWAP2 JUMPDEST POP POP POP POP POP SWAP1 DUP1 PUSH1 0x4 ADD DUP1 SLOAD PUSH2 0xEB8 SWAP1 PUSH2 0x26AC JUMP JUMPDEST DUP1 PUSH1 0x1F ADD PUSH1 0x20 DUP1 SWAP2 DIV MUL PUSH1 0x20 ADD PUSH1 0x40 MLOAD SWAP1 DUP2 ADD PUSH1 0x40 MSTORE DUP1 SWAP3 SWAP2 SWAP1 DUP2 DUP2 MSTORE PUSH1 0x20 ADD DUP3 DUP1 SLOAD PUSH2 0xEE4 SWAP1 PUSH2 0x26AC JUMP JUMPDEST DUP1 ISZERO PUSH2 0xF31 JUMPI DUP1 PUSH1 0x1F LT PUSH2 0xF06 JUMPI PUSH2 0x100 DUP1 DUP4 SLOAD DIV MUL DUP4 MSTORE SWAP2 PUSH1 0x20 ADD SWAP2 PUSH2 0xF31 JUMP JUMPDEST DUP3 ADD SWAP2 SWAP1 PUSH1 0x0 MSTORE PUSH1 0x20 PUSH1 0x0 KECCAK256 SWAP1 JUMPDEST DUP2 SLOAD DUP2 MSTORE SWAP1 PUSH1 0x1 ADD SWAP1 PUSH1 0x20 ADD DUP1 DUP4 GT PUSH2 0xF14 JUMPI DUP3 SWAP1 SUB PUSH1 0x1F AND DUP3 ADD SWAP2 JUMPDEST POP POP POP POP POP SWAP1 DUP1 PUSH1 0x5 ADD SLOAD SWAP1 DUP1 PUSH1 0x6 ADD SLOAD SWAP1 DUP1 PUSH1 0x7 ADD PUSH1 0x0 SWAP1 SLOAD SWAP1 PUSH2 0x100 EXP SWAP1 DIV PUSH20 0xFFFFFFFFFFFFFFFFFFFFFFFFFFFFFFFFFFFFFFFF AND SWAP1 DUP1 PUSH1 0x8 ADD PUSH1 0x0 SWAP1 SLOAD SWAP1 PUSH2 0x100 EXP SWAP1 DIV PUSH20 0xFFFFFFFFFFFFFFFFFFFFFFFFFFFFFFFFFFFFFFFF AND SWAP1 POP DUP10 JUMP JUMPDEST PUSH1 0x0 DUP1 SLOAD SWAP1 PUSH2 0x100 EXP SWAP1 DIV PUSH20 0xFFFFFFFFFFFFFFFFFFFFFFFFFFFFFFFFFFFFFFFF AND PUSH20 0xFFFFFFFFFFFFFFFFFFFFFFFFFFFFFFFFFFFFFFFF AND CALLER PUSH20 0xFFFFFFFFFFFFFFFFFFFFFFFFFFFFFFFFFFFFFFFF AND EQ PUSH2 0x1021 JUMPI PUSH1 0x40 MLOAD PUSH32 0x8C379A000000000000000000000000000000000000000000000000000000000 DUP2 MSTORE PUSH1 0x4 ADD PUSH2 0x1018 SWAP1 PUSH2 0x2D32 JUMP JUMPDEST PUSH1 0x40 MLOAD DUP1 SWAP2 SUB SWAP1 REVERT JUMPDEST PUSH1 0x1 PUSH1 0x0 DUP2 SLOAD DUP1 SWAP3 SWAP2 SWAP1 PUSH2 0x1034 SWAP1 PUSH2 0x2635 JUMP JUMPDEST SWAP2 SWAP1 POP SSTORE POP PUSH1 0x0 PUSH1 0x1 SLOAD SWAP1 POP PUSH1 0x0 PUSH1 0x40 MLOAD DUP1 PUSH2 0x160 ADD PUSH1 0x40 MSTORE DUP1 DUP4 DUP2 MSTORE PUSH1 0x20 ADD PUSH1 0x0 DUP2 MSTORE PUSH1 0x20 ADD DUP8 DUP2 MSTORE PUSH1 0x20 ADD DUP7 DUP2 MSTORE PUSH1 0x20 ADD DUP6 DUP2 MSTORE PUSH1 0x20 ADD DUP5 DUP2 MSTORE PUSH1 0x20 ADD TIMESTAMP DUP2 MSTORE PUSH1 0x20 ADD PUSH1 0x1 ISZERO ISZERO DUP2 MSTORE PUSH1 0x20 ADD CALLER PUSH20 0xFFFFFFFFFFFFFFFFFFFFFFFFFFFFFFFFFFFFFFFF AND DUP2 MSTORE PUSH1 0x20 ADD PUSH1 0x0 PUSH20 0xFFFFFFFFFFFFFFFFFFFFFFFFFFFFFFFFFFFFFFFF AND DUP2 MSTORE PUSH1 0x20 ADD PUSH1 0x0 ISZERO ISZERO DUP2 MSTORE POP SWAP1 POP DUP1 PUSH1 0x4 PUSH1 0x0 DUP5 DUP2 MSTORE PUSH1 0x20 ADD SWAP1 DUP2 MSTORE PUSH1 0x20 ADD PUSH1 0x0 KECCAK256 PUSH1 0x0 DUP3 ADD MLOAD DUP2 PUSH1 0x0 ADD SSTORE PUSH1 0x20 DUP3 ADD MLOAD DUP2 PUSH1 0x1 ADD SSTORE PUSH1 0x40 DUP3 ADD MLOAD DUP2 PUSH1 0x2 ADD SWAP1 DUP2 PUSH2 0x1101 SWAP2 SWAP1 PUSH2 0x2889 JUMP JUMPDEST POP PUSH1 0x60 DUP3 ADD MLOAD DUP2 PUSH1 0x3 ADD SWAP1 DUP2 PUSH2 0x1117 SWAP2 SWAP1 PUSH2 0x2889 JUMP JUMPDEST POP PUSH1 0x80 DUP3 ADD MLOAD DUP2 PUSH1 0x4 ADD SSTORE PUSH1 0xA0 DUP3 ADD MLOAD DUP2 PUSH1 0x5 ADD SSTORE PUSH1 0xC0 DUP3 ADD MLOAD DUP2 PUSH1 0x6 ADD SSTORE PUSH1 0xE0 DUP3 ADD MLOAD DUP2 PUSH1 0x7 ADD PUSH1 0x0 PUSH2 0x100 EXP DUP2 SLOAD DUP2 PUSH1 0xFF MUL NOT AND SWAP1 DUP4 ISZERO ISZERO MUL OR SWAP1 SSTORE POP PUSH2 0x100 DUP3 ADD MLOAD DUP2 PUSH1 0x7 ADD PUSH1 0x1 PUSH2 0x100 EXP DUP2 SLOAD DUP2 PUSH20 0xFFFFFFFFFFFFFFFFFFFFFFFFFFFFFFFFFFFFFFFF MUL NOT AND SWAP1 DUP4 PUSH20 0xFFFFFFFFFFFFFFFFFFFFFFFFFFFFFFFFFFFFFFFF AND MUL OR SWAP1 SSTORE POP PUSH2 0x120 DUP3 ADD MLOAD DUP2 PUSH1 0x8 ADD PUSH1 0x0 PUSH2 0x100 EXP DUP2 SLOAD DUP2 PUSH20 0xFFFFFFFFFFFFFFFFFFFFFFFFFFFFFFFFFFFFFFFF MUL NOT AND SWAP1 DUP4 PUSH20 0xFFFFFFFFFFFFFFFFFFFFFFFFFFFFFFFFFFFFFFFF AND MUL OR SWAP1 SSTORE POP PUSH2 0x140 DUP3 ADD MLOAD DUP2 PUSH1 0x8 ADD PUSH1 0x14 PUSH2 0x100 EXP DUP2 SLOAD DUP2 PUSH1 0xFF MUL NOT AND SWAP1 DUP4 ISZERO ISZERO MUL OR SWAP1 SSTORE POP SWAP1 POP POP DUP2 PUSH32 0x273327BBA2F4906FDC564E5CDC7D9E9FE6A6E956AB49907EAA112E8C36810498 DUP8 DUP8 DUP8 DUP8 CALLER PUSH1 0x40 MLOAD PUSH2 0x1242 SWAP6 SWAP5 SWAP4 SWAP3 SWAP2 SWAP1 PUSH2 0x2D52 JUMP JUMPDEST PUSH1 0x40 MLOAD DUP1 SWAP2 SUB SWAP1 LOG2 POP POP POP POP POP POP JUMP JUMPDEST PUSH1 0x0 PUSH1 0x1 SLOAD SWAP1 POP SWAP1 JUMP JUMPDEST DUP1 PUSH1 0x4 PUSH1 0x0 DUP3 DUP2 MSTORE PUSH1 0x20 ADD SWAP1 DUP2 MSTORE PUSH1 0x20 ADD PUSH1 0x0 KECCAK256 PUSH1 0x8 ADD PUSH1 0x0 SWAP1 SLOAD SWAP1 PUSH2 0x100 EXP SWAP1 DIV PUSH20 0xFFFFFFFFFFFFFFFFFFFFFFFFFFFFFFFFFFFFFFFF AND PUSH20 0xFFFFFFFFFFFFFFFFFFFFFFFFFFFFFFFFFFFFFFFF AND CALLER PUSH20 0xFFFFFFFFFFFFFFFFFFFFFFFFFFFFFFFFFFFFFFFF AND EQ PUSH2 0x1301 JUMPI PUSH1 0x40 MLOAD PUSH32 0x8C379A000000000000000000000000000000000000000000000000000000000 DUP2 MSTORE PUSH1 0x4 ADD PUSH2 0x12F8 SWAP1 PUSH2 0x2E25 JUMP JUMPDEST PUSH1 0x40 MLOAD DUP1 SWAP2 SUB SWAP1 REVERT JUMPDEST PUSH1 0x0 PUSH1 0x4 PUSH1 0x0 DUP5 DUP2 MSTORE PUSH1 0x20 ADD SWAP1 DUP2 MSTORE PUSH1 0x20 ADD PUSH1 0x0 KECCAK256 SWAP1 POP DUP1 PUSH1 0x8 ADD PUSH1 0x14 SWAP1 SLOAD SWAP1 PUSH2 0x100 EXP SWAP1 DIV PUSH1 0xFF AND ISZERO PUSH2 0x136A JUMPI PUSH1 0x40 MLOAD PUSH32 0x8C379A000000000000000000000000000000000000000000000000000000000 DUP2 MSTORE PUSH1 0x4 ADD PUSH2 0x1361 SWAP1 PUSH2 0x2EB7 JUMP JUMPDEST PUSH1 0x40 MLOAD DUP1 SWAP2 SUB SWAP1 REVERT JUMPDEST PUSH1 0x0 DUP2 PUSH1 0x8 ADD PUSH1 0x0 SWAP1 SLOAD SWAP1 PUSH2 0x100 EXP SWAP1 DIV PUSH20 0xFFFFFFFFFFFFFFFFFFFFFFFFFFFFFFFFFFFFFFFF AND PUSH20 0xFFFFFFFFFFFFFFFFFFFFFFFFFFFFFFFFFFFFFFFF AND DUP3 PUSH1 0x5 ADD SLOAD PUSH1 0x40 MLOAD PUSH2 0x13B8 SWAP1 PUSH2 0x2C19 JUMP JUMPDEST PUSH1 0x0 PUSH1 0x40 MLOAD DUP1 DUP4 SUB DUP2 DUP6 DUP8 GAS CALL SWAP3 POP POP POP RETURNDATASIZE DUP1 PUSH1 0x0 DUP2 EQ PUSH2 0x13F5 JUMPI PUSH1 0x40 MLOAD SWAP2 POP PUSH1 0x1F NOT PUSH1 0x3F RETURNDATASIZE ADD AND DUP3 ADD PUSH1 0x40 MSTORE RETURNDATASIZE DUP3 MSTORE RETURNDATASIZE PUSH1 0x0 PUSH1 0x20 DUP5 ADD RETURNDATACOPY PUSH2 0x13FA JUMP JUMPDEST PUSH1 0x60 SWAP2 POP JUMPDEST POP POP SWAP1 POP DUP1 PUSH2 0x143E JUMPI PUSH1 0x40 MLOAD PUSH32 0x8C379A000000000000000000000000000000000000000000000000000000000 DUP2 MSTORE PUSH1 0x4 ADD PUSH2 0x1435 SWAP1 PUSH2 0x2F49 JUMP JUMPDEST PUSH1 0x40 MLOAD DUP1 SWAP2 SUB SWAP1 REVERT JUMPDEST PUSH1 0x1 DUP3 PUSH1 0x8 ADD PUSH1 0x14 PUSH2 0x100 EXP DUP2 SLOAD DUP2 PUSH1 0xFF MUL NOT AND SWAP1 DUP4 ISZERO ISZERO MUL OR SWAP1 SSTORE POP POP POP POP POP JUMP JUMPDEST PUSH1 0x0 DUP1 SLOAD SWAP1 PUSH2 0x100 EXP SWAP1 DIV PUSH20 0xFFFFFFFFFFFFFFFFFFFFFFFFFFFFFFFFFFFFFFFF AND DUP2 JUMP JUMPDEST PUSH1 0x5 PUSH1 0x20 MSTORE DUP1 PUSH1 0x0 MSTORE PUSH1 0x40 PUSH1 0x0 KECCAK256 PUSH1 0x0 SWAP2 POP SWAP1 POP DUP1 PUSH1 0x0 ADD SLOAD SWAP1 DUP1 PUSH1 0x1 ADD SLOAD SWAP1 DUP1 PUSH1 0x2 ADD DUP1 SLOAD PUSH2 0x14B4 SWAP1 PUSH2 0x26AC JUMP JUMPDEST DUP1 PUSH1 0x1F ADD PUSH1 0x20 DUP1 SWAP2 DIV MUL PUSH1 0x20 ADD PUSH1 0x40 MLOAD SWAP1 DUP2 ADD PUSH1 0x40 MSTORE DUP1 SWAP3 SWAP2 SWAP1 DUP2 DUP2 MSTORE PUSH1 0x20 ADD DUP3 DUP1 SLOAD PUSH2 0x14E0 SWAP1 PUSH2 0x26AC JUMP JUMPDEST DUP1 ISZERO PUSH2 0x152D JUMPI DUP1 PUSH1 0x1F LT PUSH2 0x1502 JUMPI PUSH2 0x100 DUP1 DUP4 SLOAD DIV MUL DUP4 MSTORE SWAP2 PUSH1 0x20 ADD SWAP2 PUSH2 0x152D JUMP JUMPDEST DUP3 ADD SWAP2 SWAP1 PUSH1 0x0 MSTORE PUSH1 0x20 PUSH1 0x0 KECCAK256 SWAP1 JUMPDEST DUP2 SLOAD DUP2 MSTORE SWAP1 PUSH1 0x1 ADD SWAP1 PUSH1 0x20 ADD DUP1 DUP4 GT PUSH2 0x1510 JUMPI DUP3 SWAP1 SUB PUSH1 0x1F AND DUP3 ADD SWAP2 JUMPDEST POP POP POP POP POP SWAP1 DUP1 PUSH1 0x3 ADD DUP1 SLOAD PUSH2 0x1542 SWAP1 PUSH2 0x26AC JUMP JUMPDEST DUP1 PUSH1 0x1F ADD PUSH1 0x20 DUP1 SWAP2 DIV MUL PUSH1 0x20 ADD PUSH1 0x40 MLOAD SWAP1 DUP2 ADD PUSH1 0x40 MSTORE DUP1 SWAP3 SWAP2 SWAP1 DUP2 DUP2 MSTORE PUSH1 0x20 ADD DUP3 DUP1 SLOAD PUSH2 0x156E SWAP1 PUSH2 0x26AC JUMP JUMPDEST DUP1 ISZERO PUSH2 0x15BB JUMPI DUP1 PUSH1 0x1F LT PUSH2 0x1590 JUMPI PUSH2 0x100 DUP1 DUP4 SLOAD DIV MUL DUP4 MSTORE SWAP2 PUSH1 0x20 ADD SWAP2 PUSH2 0x15BB JUMP JUMPDEST DUP3 ADD SWAP2 SWAP1 PUSH1 0x0 MSTORE PUSH1 0x20 PUSH1 0x0 KECCAK256 SWAP1 JUMPDEST DUP2 SLOAD DUP2 MSTORE SWAP1 PUSH1 0x1 ADD SWAP1 PUSH1 0x20 ADD DUP1 DUP4 GT PUSH2 0x159E JUMPI DUP3 SWAP1 SUB PUSH1 0x1F AND DUP3 ADD SWAP2 JUMPDEST POP POP POP POP POP SWAP1 DUP1 PUSH1 0x4 ADD SLOAD SWAP1 DUP1 PUSH1 0x5 ADD SLOAD SWAP1 DUP1 PUSH1 0x6 ADD SLOAD SWAP1 DUP1 PUSH1 0x7 ADD PUSH1 0x0 SWAP1 SLOAD SWAP1 PUSH2 0x100 EXP SWAP1 DIV PUSH20 0xFFFFFFFFFFFFFFFFFFFFFFFFFFFFFFFFFFFFFFFF AND SWAP1 DUP1 PUSH1 0x8 ADD PUSH1 0x0 SWAP1 SLOAD SWAP1 PUSH2 0x100 EXP SWAP1 DIV PUSH20 0xFFFFFFFFFFFFFFFFFFFFFFFFFFFFFFFFFFFFFFFF AND SWAP1 POP DUP10 JUMP JUMPDEST DUP1 PUSH1 0x4 PUSH1 0x0 DUP3 DUP2 MSTORE PUSH1 0x20 ADD SWAP1 DUP2 MSTORE PUSH1 0x20 ADD PUSH1 0x0 KECCAK256 PUSH1 0x8 ADD PUSH1 0x0 SWAP1 SLOAD SWAP1 PUSH2 0x100 EXP SWAP1 DIV PUSH20 0xFFFFFFFFFFFFFFFFFFFFFFFFFFFFFFFFFFFFFFFF AND PUSH20 0xFFFFFFFFFFFFFFFFFFFFFFFFFFFFFFFFFFFFFFFF AND CALLER PUSH20 0xFFFFFFFFFFFFFFFFFFFFFFFFFFFFFFFFFFFFFFFF AND EQ PUSH2 0x16C8 JUMPI PUSH1 0x40 MLOAD PUSH32 0x8C379A000000000000000000000000000000000000000000000000000000000 DUP2 MSTORE PUSH1 0x4 ADD PUSH2 0x16BF SWAP1 PUSH2 0x2E25 JUMP JUMPDEST PUSH1 0x40 MLOAD DUP1 SWAP2 SUB SWAP1 REVERT JUMPDEST DUP2 PUSH1 0x0 PUSH3 0x278D00 PUSH1 0x4 PUSH1 0x0 DUP5 DUP2 MSTORE PUSH1 0x20 ADD SWAP1 DUP2 MSTORE PUSH1 0x20 ADD PUSH1 0x0 KECCAK256 PUSH1 0x6 ADD SLOAD PUSH2 0x16F0 SWAP2 SWAP1 PUSH2 0x2529 JUMP JUMPDEST SWAP1 POP DUP1 TIMESTAMP LT ISZERO PUSH2 0x1735 JUMPI PUSH1 0x40 MLOAD PUSH32 0x8C379A000000000000000000000000000000000000000000000000000000000 DUP2 MSTORE PUSH1 0x4 ADD PUSH2 0x172C SWAP1 PUSH2 0x2FB5 JUMP JUMPDEST PUSH1 0x40 MLOAD DUP1 SWAP2 SUB SWAP1 REVERT JUMPDEST DUP4 PUSH8 0xDE0B6B3A7640000 PUSH1 0x4 PUSH1 0x0 DUP4 DUP2 MSTORE PUSH1 0x20 ADD SWAP1 DUP2 MSTORE PUSH1 0x20 ADD PUSH1 0x0 KECCAK256 PUSH1 0x4 ADD SLOAD PUSH2 0x1760 SWAP2 SWAP1 PUSH2 0x2455 JUMP JUMPDEST CALLVALUE LT ISZERO PUSH2 0x17A2 JUMPI PUSH1 0x40 MLOAD PUSH32 0x8C379A000000000000000000000000000000000000000000000000000000000 DUP2 MSTORE PUSH1 0x4 ADD PUSH2 0x1799 SWAP1 PUSH2 0x2509 JUMP JUMPDEST PUSH1 0x40 MLOAD DUP1 SWAP2 SUB SWAP1 REVERT JUMPDEST PUSH1 0x0 PUSH1 0x4 PUSH1 0x0 DUP8 DUP2 MSTORE PUSH1 0x20 ADD SWAP1 DUP2 MSTORE PUSH1 0x20 ADD PUSH1 0x0 KECCAK256 SWAP1 POP PUSH1 0x0 DUP2 PUSH1 0x1 ADD SLOAD SWAP1 POP PUSH1 0x3 PUSH1 0x0 DUP2 SLOAD DUP1 SWAP3 SWAP2 SWAP1 PUSH2 0x17D5 SWAP1 PUSH2 0x2635 JUMP JUMPDEST SWAP2 SWAP1 POP SSTORE POP PUSH1 0x0 PUSH1 0x3 SLOAD SWAP1 POP PUSH1 0x0 PUSH1 0x40 MLOAD DUP1 PUSH2 0x120 ADD PUSH1 0x40 MSTORE DUP1 DUP4 DUP2 MSTORE PUSH1 0x20 ADD DUP11 DUP2 MSTORE PUSH1 0x20 ADD DUP5 DUP2 MSTORE PUSH1 0x20 ADD DUP6 PUSH1 0x2 ADD DUP1 SLOAD PUSH2 0x1810 SWAP1 PUSH2 0x26AC JUMP JUMPDEST DUP1 PUSH1 0x1F ADD PUSH1 0x20 DUP1 SWAP2 DIV MUL PUSH1 0x20 ADD PUSH1 0x40 MLOAD SWAP1 DUP2 ADD PUSH1 0x40 MSTORE DUP1 SWAP3 SWAP2 SWAP1 DUP2 DUP2 MSTORE PUSH1 0x20 ADD DUP3 DUP1 SLOAD PUSH2 0x183C SWAP1 PUSH2 0x26AC JUMP JUMPDEST DUP1 ISZERO PUSH2 0x1889 JUMPI DUP1 PUSH1 0x1F LT PUSH2 0x185E JUMPI PUSH2 0x100 DUP1 DUP4 SLOAD DIV MUL DUP4 MSTORE SWAP2 PUSH1 0x20 ADD SWAP2 PUSH2 0x1889 JUMP JUMPDEST DUP3 ADD SWAP2 SWAP1 PUSH1 0x0 MSTORE PUSH1 0x20 PUSH1 0x0 KECCAK256 SWAP1 JUMPDEST DUP2 SLOAD DUP2 MSTORE SWAP1 PUSH1 0x1 ADD SWAP1 PUSH1 0x20 ADD DUP1 DUP4 GT PUSH2 0x186C JUMPI DUP3 SWAP1 SUB PUSH1 0x1F AND DUP3 ADD SWAP2 JUMPDEST POP POP POP POP POP DUP2 MSTORE PUSH1 0x20 ADD DUP6 PUSH1 0x3 ADD DUP1 SLOAD PUSH2 0x18A2 SWAP1 PUSH2 0x26AC JUMP JUMPDEST DUP1 PUSH1 0x1F ADD PUSH1 0x20 DUP1 SWAP2 DIV MUL PUSH1 0x20 ADD PUSH1 0x40 MLOAD SWAP1 DUP2 ADD PUSH1 0x40 MSTORE DUP1 SWAP3 SWAP2 SWAP1 DUP2 DUP2 MSTORE PUSH1 0x20 ADD DUP3 DUP1 SLOAD PUSH2 0x18CE SWAP1 PUSH2 0x26AC JUMP JUMPDEST DUP1 ISZERO PUSH2 0x191B JUMPI DUP1 PUSH1 0x1F LT PUSH2 0x18F0 JUMPI PUSH2 0x100 DUP1 DUP4 SLOAD DIV MUL DUP4 MSTORE SWAP2 PUSH1 0x20 ADD SWAP2 PUSH2 0x191B JUMP JUMPDEST DUP3 ADD SWAP2 SWAP1 PUSH1 0x0 MSTORE PUSH1 0x20 PUSH1 0x0 KECCAK256 SWAP1 JUMPDEST DUP2 SLOAD DUP2 MSTORE SWAP1 PUSH1 0x1 ADD SWAP1 PUSH1 0x20 ADD DUP1 DUP4 GT PUSH2 0x18FE JUMPI DUP3 SWAP1 SUB PUSH1 0x1F AND DUP3 ADD SWAP2 JUMPDEST POP POP POP POP POP DUP2 MSTORE PUSH1 0x20 ADD DUP6 PUSH1 0x4 ADD SLOAD DUP2 MSTORE PUSH1 0x20 ADD TIMESTAMP DUP2 MSTORE PUSH1 0x20 ADD DUP6 PUSH1 0x7 ADD PUSH1 0x1 SWAP1 SLOAD SWAP1 PUSH2 0x100 EXP SWAP1 DIV PUSH20 0xFFFFFFFFFFFFFFFFFFFFFFFFFFFFFFFFFFFFFFFF AND PUSH20 0xFFFFFFFFFFFFFFFFFFFFFFFFFFFFFFFFFFFFFFFF AND DUP2 MSTORE PUSH1 0x20 ADD DUP6 PUSH1 0x8 ADD PUSH1 0x0 SWAP1 SLOAD SWAP1 PUSH2 0x100 EXP SWAP1 DIV PUSH20 0xFFFFFFFFFFFFFFFFFFFFFFFFFFFFFFFFFFFFFFFF AND PUSH20 0xFFFFFFFFFFFFFFFFFFFFFFFFFFFFFFFFFFFFFFFF AND DUP2 MSTORE POP SWAP1 POP DUP1 PUSH1 0x6 PUSH1 0x0 DUP5 DUP2 MSTORE PUSH1 0x20 ADD SWAP1 DUP2 MSTORE PUSH1 0x20 ADD PUSH1 0x0 KECCAK256 PUSH1 0x0 DUP3 ADD MLOAD DUP2 PUSH1 0x0 ADD SSTORE PUSH1 0x20 DUP3 ADD MLOAD DUP2 PUSH1 0x1 ADD SSTORE PUSH1 0x40 DUP3 ADD MLOAD DUP2 PUSH1 0x2 ADD SSTORE PUSH1 0x60 DUP3 ADD MLOAD DUP2 PUSH1 0x3 ADD SWAP1 DUP2 PUSH2 0x19FC SWAP2 SWAP1 PUSH2 0x2889 JUMP JUMPDEST POP PUSH1 0x80 DUP3 ADD MLOAD DUP2 PUSH1 0x4 ADD SWAP1 DUP2 PUSH2 0x1A12 SWAP2 SWAP1 PUSH2 0x2889 JUMP JUMPDEST POP PUSH1 0xA0 DUP3 ADD MLOAD DUP2 PUSH1 0x5 ADD SSTORE PUSH1 0xC0 DUP3 ADD MLOAD DUP2 PUSH1 0x6 ADD SSTORE PUSH1 0xE0 DUP3 ADD MLOAD DUP2 PUSH1 0x7 ADD PUSH1 0x0 PUSH2 0x100 EXP DUP2 SLOAD DUP2 PUSH20 0xFFFFFFFFFFFFFFFFFFFFFFFFFFFFFFFFFFFFFFFF MUL NOT AND SWAP1 DUP4 PUSH20 0xFFFFFFFFFFFFFFFFFFFFFFFFFFFFFFFFFFFFFFFF AND MUL OR SWAP1 SSTORE POP PUSH2 0x100 DUP3 ADD MLOAD DUP2 PUSH1 0x8 ADD PUSH1 0x0 PUSH2 0x100 EXP DUP2 SLOAD DUP2 PUSH20 0xFFFFFFFFFFFFFFFFFFFFFFFFFFFFFFFFFFFFFFFF MUL NOT AND SWAP1 DUP4 PUSH20 0xFFFFFFFFFFFFFFFFFFFFFFFFFFFFFFFFFFFFFFFF AND MUL OR SWAP1 SSTORE POP SWAP1 POP POP PUSH1 0x0 DUP5 PUSH1 0x7 ADD PUSH1 0x1 SWAP1 SLOAD SWAP1 PUSH2 0x100 EXP SWAP1 DIV PUSH20 0xFFFFFFFFFFFFFFFFFFFFFFFFFFFFFFFFFFFFFFFF AND PUSH20 0xFFFFFFFFFFFFFFFFFFFFFFFFFFFFFFFFFFFFFFFF AND PUSH8 0xDE0B6B3A7640000 DUP7 PUSH1 0x4 ADD SLOAD PUSH2 0x1B0E SWAP2 SWAP1 PUSH2 0x2455 JUMP JUMPDEST PUSH1 0x40 MLOAD PUSH2 0x1B1A SWAP1 PUSH2 0x2C19 JUMP JUMPDEST PUSH1 0x0 PUSH1 0x40 MLOAD DUP1 DUP4 SUB DUP2 DUP6 DUP8 GAS CALL SWAP3 POP POP POP RETURNDATASIZE DUP1 PUSH1 0x0 DUP2 EQ PUSH2 0x1B57 JUMPI PUSH1 0x40 MLOAD SWAP2 POP PUSH1 0x1F NOT PUSH1 0x3F RETURNDATASIZE ADD AND DUP3 ADD PUSH1 0x40 MSTORE RETURNDATASIZE DUP3 MSTORE RETURNDATASIZE PUSH1 0x0 PUSH1 0x20 DUP5 ADD RETURNDATACOPY PUSH2 0x1B5C JUMP JUMPDEST PUSH1 0x60 SWAP2 POP JUMPDEST POP POP SWAP1 POP DUP1 PUSH2 0x1BA0 JUMPI PUSH1 0x40 MLOAD PUSH32 0x8C379A000000000000000000000000000000000000000000000000000000000 DUP2 MSTORE PUSH1 0x4 ADD PUSH2 0x1B97 SWAP1 PUSH2 0x3021 JUMP JUMPDEST PUSH1 0x40 MLOAD DUP1 SWAP2 SUB SWAP1 REVERT JUMPDEST DUP5 PUSH1 0x8 ADD PUSH1 0x0 SWAP1 SLOAD SWAP1 PUSH2 0x100 EXP SWAP1 DIV PUSH20 0xFFFFFFFFFFFFFFFFFFFFFFFFFFFFFFFFFFFFFFFF AND PUSH20 0xFFFFFFFFFFFFFFFFFFFFFFFFFFFFFFFFFFFFFFFF AND DUP6 PUSH1 0x7 ADD PUSH1 0x1 SWAP1 SLOAD SWAP1 PUSH2 0x100 EXP SWAP1 DIV PUSH20 0xFFFFFFFFFFFFFFFFFFFFFFFFFFFFFFFFFFFFFFFF AND PUSH20 0xFFFFFFFFFFFFFFFFFFFFFFFFFFFFFFFFFFFFFFFF AND DUP12 PUSH32 0x46FEC4E1CDF814D49FA69BC9E405D2A83FD8AFB2A68993A95ADBF4A5CC9DFF61 DUP7 DUP10 PUSH1 0x2 ADD DUP11 PUSH1 0x3 ADD DUP12 PUSH1 0x4 ADD SLOAD PUSH1 0x40 MLOAD PUSH2 0x1C56 SWAP5 SWAP4 SWAP3 SWAP2 SWAP1 PUSH2 0x3041 JUMP JUMPDEST PUSH1 0x40 MLOAD DUP1 SWAP2 SUB SWAP1 LOG4 POP POP POP POP POP POP POP POP POP POP JUMP JUMPDEST PUSH1 0x4 PUSH1 0x20 MSTORE DUP1 PUSH1 0x0 MSTORE PUSH1 0x40 PUSH1 0x0 KECCAK256 PUSH1 0x0 SWAP2 POP SWAP1 POP DUP1 PUSH1 0x0 ADD SLOAD SWAP1 DUP1 PUSH1 0x1 ADD SLOAD SWAP1 DUP1 PUSH1 0x2 ADD DUP1 SLOAD PUSH2 0x1C99 SWAP1 PUSH2 0x26AC JUMP JUMPDEST DUP1 PUSH1 0x1F ADD PUSH1 0x20 DUP1 SWAP2 DIV MUL PUSH1 0x20 ADD PUSH1 0x40 MLOAD SWAP1 DUP2 ADD PUSH1 0x40 MSTORE DUP1 SWAP3 SWAP2 SWAP1 DUP2 DUP2 MSTORE PUSH1 0x20 ADD DUP3 DUP1 SLOAD PUSH2 0x1CC5 SWAP1 PUSH2 0x26AC JUMP JUMPDEST DUP1 ISZERO PUSH2 0x1D12 JUMPI DUP1 PUSH1 0x1F LT PUSH2 0x1CE7 JUMPI PUSH2 0x100 DUP1 DUP4 SLOAD DIV MUL DUP4 MSTORE SWAP2 PUSH1 0x20 ADD SWAP2 PUSH2 0x1D12 JUMP JUMPDEST DUP3 ADD SWAP2 SWAP1 PUSH1 0x0 MSTORE PUSH1 0x20 PUSH1 0x0 KECCAK256 SWAP1 JUMPDEST DUP2 SLOAD DUP2 MSTORE SWAP1 PUSH1 0x1 ADD SWAP1 PUSH1 0x20 ADD DUP1 DUP4 GT PUSH2 0x1CF5 JUMPI DUP3 SWAP1 SUB PUSH1 0x1F AND DUP3 ADD SWAP2 JUMPDEST POP POP POP POP POP SWAP1 DUP1 PUSH1 0x3 ADD DUP1 SLOAD PUSH2 0x1D27 SWAP1 PUSH2 0x26AC JUMP JUMPDEST DUP1 PUSH1 0x1F ADD PUSH1 0x20 DUP1 SWAP2 DIV MUL PUSH1 0x20 ADD PUSH1 0x40 MLOAD SWAP1 DUP2 ADD PUSH1 0x40 MSTORE DUP1 SWAP3 SWAP2 SWAP1 DUP2 DUP2 MSTORE PUSH1 0x20 ADD DUP3 DUP1 SLOAD PUSH2 0x1D53 SWAP1 PUSH2 0x26AC JUMP JUMPDEST DUP1 ISZERO PUSH2 0x1DA0 JUMPI DUP1 PUSH1 0x1F LT PUSH2 0x1D75 JUMPI PUSH2 0x100 DUP1 DUP4 SLOAD DIV MUL DUP4 MSTORE SWAP2 PUSH1 0x20 ADD SWAP2 PUSH2 0x1DA0 JUMP JUMPDEST DUP3 ADD SWAP2 SWAP1 PUSH1 0x0 MSTORE PUSH1 0x20 PUSH1 0x0 KECCAK256 SWAP1 JUMPDEST DUP2 SLOAD DUP2 MSTORE SWAP1 PUSH1 0x1 ADD SWAP1 PUSH1 0x20 ADD DUP1 DUP4 GT PUSH2 0x1D83 JUMPI DUP3 SWAP1 SUB PUSH1 0x1F AND DUP3 ADD SWAP2 JUMPDEST POP POP POP POP POP SWAP1 DUP1 PUSH1 0x4 ADD SLOAD SWAP1 DUP1 PUSH1 0x5 ADD SLOAD SWAP1 DUP1 PUSH1 0x6 ADD SLOAD SWAP1 DUP1 PUSH1 0x7 ADD PUSH1 0x0 SWAP1 SLOAD SWAP1 PUSH2 0x100 EXP SWAP1 DIV PUSH1 0xFF AND SWAP1 DUP1 PUSH1 0x7 ADD PUSH1 0x1 SWAP1 SLOAD SWAP1 PUSH2 0x100 EXP SWAP1 DIV PUSH20 0xFFFFFFFFFFFFFFFFFFFFFFFFFFFFFFFFFFFFFFFF AND SWAP1 DUP1 PUSH1 0x8 ADD PUSH1 0x0 SWAP1 SLOAD SWAP1 PUSH2 0x100 EXP SWAP1 DIV PUSH20 0xFFFFFFFFFFFFFFFFFFFFFFFFFFFFFFFFFFFFFFFF AND SWAP1 DUP1 PUSH1 0x8 ADD PUSH1 0x14 SWAP1 SLOAD SWAP1 PUSH2 0x100 EXP SWAP1 DIV PUSH1 0xFF AND SWAP1 POP DUP12 JUMP JUMPDEST PUSH1 0x0 PUSH1 0x40 MLOAD SWAP1 POP SWAP1 JUMP JUMPDEST PUSH1 0x0 DUP1 REVERT JUMPDEST PUSH1 0x0 DUP1 REVERT JUMPDEST PUSH1 0x0 DUP2 SWAP1 POP SWAP2 SWAP1 POP JUMP JUMPDEST PUSH2 0x1E55 DUP2 PUSH2 0x1E42 JUMP JUMPDEST DUP2 EQ PUSH2 0x1E60 JUMPI PUSH1 0x0 DUP1 REVERT JUMPDEST POP JUMP JUMPDEST PUSH1 0x0 DUP2 CALLDATALOAD SWAP1 POP PUSH2 0x1E72 DUP2 PUSH2 0x1E4C JUMP JUMPDEST SWAP3 SWAP2 POP POP JUMP JUMPDEST PUSH1 0x0 PUSH1 0x20 DUP3 DUP5 SUB SLT ISZERO PUSH2 0x1E8E JUMPI PUSH2 0x1E8D PUSH2 0x1E38 JUMP JUMPDEST JUMPDEST PUSH1 0x0 PUSH2 0x1E9C DUP5 DUP3 DUP6 ADD PUSH2 0x1E63 JUMP JUMPDEST SWAP2 POP POP SWAP3 SWAP2 POP POP JUMP JUMPDEST PUSH2 0x1EAE DUP2 PUSH2 0x1E42 JUMP JUMPDEST DUP3 MSTORE POP POP JUMP JUMPDEST PUSH1 0x0 PUSH1 0x20 DUP3 ADD SWAP1 POP PUSH2 0x1EC9 PUSH1 0x0 DUP4 ADD DUP5 PUSH2 0x1EA5 JUMP JUMPDEST SWAP3 SWAP2 POP POP JUMP JUMPDEST PUSH1 0x0 DUP2 MLOAD SWAP1 POP SWAP2 SWAP1 POP JUMP JUMPDEST PUSH1 0x0 DUP3 DUP3 MSTORE PUSH1 0x20 DUP3 ADD SWAP1 POP SWAP3 SWAP2 POP POP JUMP JUMPDEST PUSH1 0x0 JUMPDEST DUP4 DUP2 LT ISZERO PUSH2 0x1F09 JUMPI DUP1 DUP3 ADD MLOAD DUP2 DUP5 ADD MSTORE PUSH1 0x20 DUP2 ADD SWAP1 POP PUSH2 0x1EEE JUMP JUMPDEST PUSH1 0x0 DUP5 DUP5 ADD MSTORE POP POP POP POP JUMP JUMPDEST PUSH1 0x0 PUSH1 0x1F NOT PUSH1 0x1F DUP4 ADD AND SWAP1 POP SWAP2 SWAP1 POP JUMP JUMPDEST PUSH1 0x0 PUSH2 0x1F31 DUP3 PUSH2 0x1ECF JUMP JUMPDEST PUSH2 0x1F3B DUP2 DUP6 PUSH2 0x1EDA JUMP JUMPDEST SWAP4 POP PUSH2 0x1F4B DUP2 DUP6 PUSH1 0x20 DUP7 ADD PUSH2 0x1EEB JUMP JUMPDEST PUSH2 0x1F54 DUP2 PUSH2 0x1F15 JUMP JUMPDEST DUP5 ADD SWAP2 POP POP SWAP3 SWAP2 POP POP JUMP JUMPDEST PUSH1 0x0 PUSH20 0xFFFFFFFFFFFFFFFFFFFFFFFFFFFFFFFFFFFFFFFF DUP3 AND SWAP1 POP SWAP2 SWAP1 POP JUMP JUMPDEST PUSH1 0x0 PUSH2 0x1F8A DUP3 PUSH2 0x1F5F JUMP JUMPDEST SWAP1 POP SWAP2 SWAP1 POP JUMP JUMPDEST PUSH2 0x1F9A DUP2 PUSH2 0x1F7F JUMP JUMPDEST DUP3 MSTORE POP POP JUMP JUMPDEST PUSH1 0x0 PUSH2 0x120 DUP3 ADD SWAP1 POP PUSH2 0x1FB6 PUSH1 0x0 DUP4 ADD DUP13 PUSH2 0x1EA5 JUMP JUMPDEST PUSH2 0x1FC3 PUSH1 0x20 DUP4 ADD DUP12 PUSH2 0x1EA5 JUMP JUMPDEST PUSH2 0x1FD0 PUSH1 0x40 DUP4 ADD DUP11 PUSH2 0x1EA5 JUMP JUMPDEST DUP2 DUP2 SUB PUSH1 0x60 DUP4 ADD MSTORE PUSH2 0x1FE2 DUP2 DUP10 PUSH2 0x1F26 JUMP JUMPDEST SWAP1 POP DUP2 DUP2 SUB PUSH1 0x80 DUP4 ADD MSTORE PUSH2 0x1FF6 DUP2 DUP9 PUSH2 0x1F26 JUMP JUMPDEST SWAP1 POP PUSH2 0x2005 PUSH1 0xA0 DUP4 ADD DUP8 PUSH2 0x1EA5 JUMP JUMPDEST PUSH2 0x2012 PUSH1 0xC0 DUP4 ADD DUP7 PUSH2 0x1EA5 JUMP JUMPDEST PUSH2 0x201F PUSH1 0xE0 DUP4 ADD DUP6 PUSH2 0x1F91 JUMP JUMPDEST PUSH2 0x202D PUSH2 0x100 DUP4 ADD DUP5 PUSH2 0x1F91 JUMP JUMPDEST SWAP11 SWAP10 POP POP POP POP POP POP POP POP POP POP JUMP JUMPDEST PUSH1 0x0 DUP1 REVERT JUMPDEST PUSH1 0x0 DUP1 REVERT JUMPDEST PUSH32 0x4E487B7100000000000000000000000000000000000000000000000000000000 PUSH1 0x0 MSTORE PUSH1 0x41 PUSH1 0x4 MSTORE PUSH1 0x24 PUSH1 0x0 REVERT JUMPDEST PUSH2 0x207D DUP3 PUSH2 0x1F15 JUMP JUMPDEST DUP2 ADD DUP2 DUP2 LT PUSH8 0xFFFFFFFFFFFFFFFF DUP3 GT OR ISZERO PUSH2 0x209C JUMPI PUSH2 0x209B PUSH2 0x2045 JUMP JUMPDEST JUMPDEST DUP1 PUSH1 0x40 MSTORE POP POP POP JUMP JUMPDEST PUSH1 0x0 PUSH2 0x20AF PUSH2 0x1E2E JUMP JUMPDEST SWAP1 POP PUSH2 0x20BB DUP3 DUP3 PUSH2 0x2074 JUMP JUMPDEST SWAP2 SWAP1 POP JUMP JUMPDEST PUSH1 0x0 PUSH8 0xFFFFFFFFFFFFFFFF DUP3 GT ISZERO PUSH2 0x20DB JUMPI PUSH2 0x20DA PUSH2 0x2045 JUMP JUMPDEST JUMPDEST PUSH2 0x20E4 DUP3 PUSH2 0x1F15 JUMP JUMPDEST SWAP1 POP PUSH1 0x20 DUP2 ADD SWAP1 POP SWAP2 SWAP1 POP JUMP JUMPDEST DUP3 DUP2 DUP4 CALLDATACOPY PUSH1 0x0 DUP4 DUP4 ADD MSTORE POP POP POP JUMP JUMPDEST PUSH1 0x0 PUSH2 0x2113 PUSH2 0x210E DUP5 PUSH2 0x20C0 JUMP JUMPDEST PUSH2 0x20A5 JUMP JUMPDEST SWAP1 POP DUP3 DUP2 MSTORE PUSH1 0x20 DUP2 ADD DUP5 DUP5 DUP5 ADD GT ISZERO PUSH2 0x212F JUMPI PUSH2 0x212E PUSH2 0x2040 JUMP JUMPDEST JUMPDEST PUSH2 0x213A DUP5 DUP3 DUP6 PUSH2 0x20F1 JUMP JUMPDEST POP SWAP4 SWAP3 POP POP POP JUMP JUMPDEST PUSH1 0x0 DUP3 PUSH1 0x1F DUP4 ADD SLT PUSH2 0x2157 JUMPI PUSH2 0x2156 PUSH2 0x203B JUMP JUMPDEST JUMPDEST DUP2 CALLDATALOAD PUSH2 0x2167 DUP5 DUP3 PUSH1 0x20 DUP7 ADD PUSH2 0x2100 JUMP JUMPDEST SWAP2 POP POP SWAP3 SWAP2 POP POP JUMP JUMPDEST PUSH1 0x0 DUP1 PUSH1 0x0 DUP1 PUSH1 0x80 DUP6 DUP8 SUB SLT ISZERO PUSH2 0x218A JUMPI PUSH2 0x2189 PUSH2 0x1E38 JUMP JUMPDEST JUMPDEST PUSH1 0x0 DUP6 ADD CALLDATALOAD PUSH8 0xFFFFFFFFFFFFFFFF DUP2 GT ISZERO PUSH2 0x21A8 JUMPI PUSH2 0x21A7 PUSH2 0x1E3D JUMP JUMPDEST JUMPDEST PUSH2 0x21B4 DUP8 DUP3 DUP9 ADD PUSH2 0x2142 JUMP JUMPDEST SWAP5 POP POP PUSH1 0x20 DUP6 ADD CALLDATALOAD PUSH8 0xFFFFFFFFFFFFFFFF DUP2 GT ISZERO PUSH2 0x21D5 JUMPI PUSH2 0x21D4 PUSH2 0x1E3D JUMP JUMPDEST JUMPDEST PUSH2 0x21E1 DUP8 DUP3 DUP9 ADD PUSH2 0x2142 JUMP JUMPDEST SWAP4 POP POP PUSH1 0x40 PUSH2 0x21F2 DUP8 DUP3 DUP9 ADD PUSH2 0x1E63 JUMP JUMPDEST SWAP3 POP POP PUSH1 0x60 PUSH2 0x2203 DUP8 DUP3 DUP9 ADD PUSH2 0x1E63 JUMP JUMPDEST SWAP2 POP POP SWAP3 SWAP6 SWAP2 SWAP5 POP SWAP3 POP JUMP JUMPDEST PUSH1 0x0 PUSH2 0x221A DUP3 PUSH2 0x1F5F JUMP JUMPDEST SWAP1 POP SWAP2 SWAP1 POP JUMP JUMPDEST PUSH2 0x222A DUP2 PUSH2 0x220F JUMP JUMPDEST DUP3 MSTORE POP POP JUMP JUMPDEST PUSH1 0x0 PUSH1 0x20 DUP3 ADD SWAP1 POP PUSH2 0x2245 PUSH1 0x0 DUP4 ADD DUP5 PUSH2 0x2221 JUMP JUMPDEST SWAP3 SWAP2 POP POP JUMP JUMPDEST PUSH1 0x0 PUSH2 0x120 DUP3 ADD SWAP1 POP PUSH2 0x2261 PUSH1 0x0 DUP4 ADD DUP13 PUSH2 0x1EA5 JUMP JUMPDEST PUSH2 0x226E PUSH1 0x20 DUP4 ADD DUP12 PUSH2 0x1EA5 JUMP JUMPDEST DUP2 DUP2 SUB PUSH1 0x40 DUP4 ADD MSTORE PUSH2 0x2280 DUP2 DUP11 PUSH2 0x1F26 JUMP JUMPDEST SWAP1 POP DUP2 DUP2 SUB PUSH1 0x60 DUP4 ADD MSTORE PUSH2 0x2294 DUP2 DUP10 PUSH2 0x1F26 JUMP JUMPDEST SWAP1 POP PUSH2 0x22A3 PUSH1 0x80 DUP4 ADD DUP9 PUSH2 0x1EA5 JUMP JUMPDEST PUSH2 0x22B0 PUSH1 0xA0 DUP4 ADD DUP8 PUSH2 0x1EA5 JUMP JUMPDEST PUSH2 0x22BD PUSH1 0xC0 DUP4 ADD DUP7 PUSH2 0x1EA5 JUMP JUMPDEST PUSH2 0x22CA PUSH1 0xE0 DUP4 ADD DUP6 PUSH2 0x1F91 JUMP JUMPDEST PUSH2 0x22D8 PUSH2 0x100 DUP4 ADD DUP5 PUSH2 0x1F91 JUMP JUMPDEST SWAP11 SWAP10 POP POP POP POP POP POP POP POP POP POP JUMP JUMPDEST PUSH1 0x0 DUP2 ISZERO ISZERO SWAP1 POP SWAP2 SWAP1 POP JUMP JUMPDEST PUSH2 0x22FB DUP2 PUSH2 0x22E6 JUMP JUMPDEST DUP3 MSTORE POP POP JUMP JUMPDEST PUSH1 0x0 PUSH2 0x160 DUP3 ADD SWAP1 POP PUSH2 0x2317 PUSH1 0x0 DUP4 ADD DUP15 PUSH2 0x1EA5 JUMP JUMPDEST PUSH2 0x2324 PUSH1 0x20 DUP4 ADD DUP14 PUSH2 0x1EA5 JUMP JUMPDEST DUP2 DUP2 SUB PUSH1 0x40 DUP4 ADD MSTORE PUSH2 0x2336 DUP2 DUP13 PUSH2 0x1F26 JUMP JUMPDEST SWAP1 POP DUP2 DUP2 SUB PUSH1 0x60 DUP4 ADD MSTORE PUSH2 0x234A DUP2 DUP12 PUSH2 0x1F26 JUMP JUMPDEST SWAP1 POP PUSH2 0x2359 PUSH1 0x80 DUP4 ADD DUP11 PUSH2 0x1EA5 JUMP JUMPDEST PUSH2 0x2366 PUSH1 0xA0 DUP4 ADD DUP10 PUSH2 0x1EA5 JUMP JUMPDEST PUSH2 0x2373 PUSH1 0xC0 DUP4 ADD DUP9 PUSH2 0x1EA5 JUMP JUMPDEST PUSH2 0x2380 PUSH1 0xE0 DUP4 ADD DUP8 PUSH2 0x22F2 JUMP JUMPDEST PUSH2 0x238E PUSH2 0x100 DUP4 ADD DUP7 PUSH2 0x1F91 JUMP JUMPDEST PUSH2 0x239C PUSH2 0x120 DUP4 ADD DUP6 PUSH2 0x1F91 JUMP JUMPDEST PUSH2 0x23AA PUSH2 0x140 DUP4 ADD DUP5 PUSH2 0x22F2 JUMP JUMPDEST SWAP13 SWAP12 POP POP POP POP POP POP POP POP POP POP POP POP JUMP JUMPDEST PUSH32 0x5468697320726F6F6D206973206F636375706965640000000000000000000000 PUSH1 0x0 DUP3 ADD MSTORE POP JUMP JUMPDEST PUSH1 0x0 PUSH2 0x23F0 PUSH1 0x15 DUP4 PUSH2 0x1EDA JUMP JUMPDEST SWAP2 POP PUSH2 0x23FB DUP3 PUSH2 0x23BA JUMP JUMPDEST PUSH1 0x20 DUP3 ADD SWAP1 POP SWAP2 SWAP1 POP JUMP JUMPDEST PUSH1 0x0 PUSH1 0x20 DUP3 ADD SWAP1 POP DUP2 DUP2 SUB PUSH1 0x0 DUP4 ADD MSTORE PUSH2 0x241F DUP2 PUSH2 0x23E3 JUMP JUMPDEST SWAP1 POP SWAP2 SWAP1 POP JUMP JUMPDEST PUSH32 0x4E487B7100000000000000000000000000000000000000000000000000000000 PUSH1 0x0 MSTORE PUSH1 0x11 PUSH1 0x4 MSTORE PUSH1 0x24 PUSH1 0x0 REVERT JUMPDEST PUSH1 0x0 PUSH2 0x2460 DUP3 PUSH2 0x1E42 JUMP JUMPDEST SWAP2 POP PUSH2 0x246B DUP4 PUSH2 0x1E42 JUMP JUMPDEST SWAP3 POP DUP3 DUP3 MUL PUSH2 0x2479 DUP2 PUSH2 0x1E42 JUMP JUMPDEST SWAP2 POP DUP3 DUP3 DIV DUP5 EQ DUP4 ISZERO OR PUSH2 0x2490 JUMPI PUSH2 0x248F PUSH2 0x2426 JUMP JUMPDEST JUMPDEST POP SWAP3 SWAP2 POP POP JUMP JUMPDEST PUSH32 0x596F75206861766520696E73756666696369656E7420616D6F756E7420666F72 PUSH1 0x0 DUP3 ADD MSTORE PUSH32 0x207468652072656E740000000000000000000000000000000000000000000000 PUSH1 0x20 DUP3 ADD MSTORE POP JUMP JUMPDEST PUSH1 0x0 PUSH2 0x24F3 PUSH1 0x29 DUP4 PUSH2 0x1EDA JUMP JUMPDEST SWAP2 POP PUSH2 0x24FE DUP3 PUSH2 0x2497 JUMP JUMPDEST PUSH1 0x40 DUP3 ADD SWAP1 POP SWAP2 SWAP1 POP JUMP JUMPDEST PUSH1 0x0 PUSH1 0x20 DUP3 ADD SWAP1 POP DUP2 DUP2 SUB PUSH1 0x0 DUP4 ADD MSTORE PUSH2 0x2522 DUP2 PUSH2 0x24E6 JUMP JUMPDEST SWAP1 POP SWAP2 SWAP1 POP JUMP JUMPDEST PUSH1 0x0 PUSH2 0x2534 DUP3 PUSH2 0x1E42 JUMP JUMPDEST SWAP2 POP PUSH2 0x253F DUP4 PUSH2 0x1E42 JUMP JUMPDEST SWAP3 POP DUP3 DUP3 ADD SWAP1 POP DUP1 DUP3 GT ISZERO PUSH2 0x2557 JUMPI PUSH2 0x2556 PUSH2 0x2426 JUMP JUMPDEST JUMPDEST SWAP3 SWAP2 POP POP JUMP JUMPDEST PUSH32 0x4E6F7420656E6F7567682041677265656D656E74206665650000000000000000 PUSH1 0x0 DUP3 ADD MSTORE POP JUMP JUMPDEST PUSH1 0x0 PUSH2 0x2593 PUSH1 0x18 DUP4 PUSH2 0x1EDA JUMP JUMPDEST SWAP2 POP PUSH2 0x259E DUP3 PUSH2 0x255D JUMP JUMPDEST PUSH1 0x20 DUP3 ADD SWAP1 POP SWAP2 SWAP1 POP JUMP JUMPDEST PUSH1 0x0 PUSH1 0x20 DUP3 ADD SWAP1 POP DUP2 DUP2 SUB PUSH1 0x0 DUP4 ADD MSTORE PUSH2 0x25C2 DUP2 PUSH2 0x2586 JUMP JUMPDEST SWAP1 POP SWAP2 SWAP1 POP JUMP JUMPDEST PUSH32 0x41677265656D656E7420656E6465640000000000000000000000000000000000 PUSH1 0x0 DUP3 ADD MSTORE POP JUMP JUMPDEST PUSH1 0x0 PUSH2 0x25FF PUSH1 0xF DUP4 PUSH2 0x1EDA JUMP JUMPDEST SWAP2 POP PUSH2 0x260A DUP3 PUSH2 0x25C9 JUMP JUMPDEST PUSH1 0x20 DUP3 ADD SWAP1 POP SWAP2 SWAP1 POP JUMP JUMPDEST PUSH1 0x0 PUSH1 0x20 DUP3 ADD SWAP1 POP DUP2 DUP2 SUB PUSH1 0x0 DUP4 ADD MSTORE PUSH2 0x262E DUP2 PUSH2 0x25F2 JUMP JUMPDEST SWAP1 POP SWAP2 SWAP1 POP JUMP JUMPDEST PUSH1 0x0 PUSH2 0x2640 DUP3 PUSH2 0x1E42 JUMP JUMPDEST SWAP2 POP PUSH32 0xFFFFFFFFFFFFFFFFFFFFFFFFFFFFFFFFFFFFFFFFFFFFFFFFFFFFFFFFFFFFFFFF DUP3 SUB PUSH2 0x2672 JUMPI PUSH2 0x2671 PUSH2 0x2426 JUMP JUMPDEST JUMPDEST PUSH1 0x1 DUP3 ADD SWAP1 POP SWAP2 SWAP1 POP JUMP JUMPDEST PUSH32 0x4E487B7100000000000000000000000000000000000000000000000000000000 PUSH1 0x0 MSTORE PUSH1 0x22 PUSH1 0x4 MSTORE PUSH1 0x24 PUSH1 0x0 REVERT JUMPDEST PUSH1 0x0 PUSH1 0x2 DUP3 DIV SWAP1 POP PUSH1 0x1 DUP3 AND DUP1 PUSH2 0x26C4 JUMPI PUSH1 0x7F DUP3 AND SWAP2 POP JUMPDEST PUSH1 0x20 DUP3 LT DUP2 SUB PUSH2 0x26D7 JUMPI PUSH2 0x26D6 PUSH2 0x267D JUMP JUMPDEST JUMPDEST POP SWAP2 SWAP1 POP JUMP JUMPDEST PUSH1 0x0 DUP2 SWAP1 POP DUP2 PUSH1 0x0 MSTORE PUSH1 0x20 PUSH1 0x0 KECCAK256 SWAP1 POP SWAP2 SWAP1 POP JUMP JUMPDEST PUSH1 0x0 PUSH1 0x20 PUSH1 0x1F DUP4 ADD DIV SWAP1 POP SWAP2 SWAP1 POP JUMP JUMPDEST PUSH1 0x0 DUP3 DUP3 SHL SWAP1 POP SWAP3 SWAP2 POP POP JUMP JUMPDEST PUSH1 0x0 PUSH1 0x8 DUP4 MUL PUSH2 0x273F PUSH32 0xFFFFFFFFFFFFFFFFFFFFFFFFFFFFFFFFFFFFFFFFFFFFFFFFFFFFFFFFFFFFFFFF DUP3 PUSH2 0x2702 JUMP JUMPDEST PUSH2 0x2749 DUP7 DUP4 PUSH2 0x2702 JUMP JUMPDEST SWAP6 POP DUP1 NOT DUP5 AND SWAP4 POP DUP1 DUP7 AND DUP5 OR SWAP3 POP POP POP SWAP4 SWAP3 POP POP POP JUMP JUMPDEST PUSH1 0x0 DUP2 SWAP1 POP SWAP2 SWAP1 POP JUMP JUMPDEST PUSH1 0x0 PUSH2 0x2786 PUSH2 0x2781 PUSH2 0x277C DUP5 PUSH2 0x1E42 JUMP JUMPDEST PUSH2 0x2761 JUMP JUMPDEST PUSH2 0x1E42 JUMP JUMPDEST SWAP1 POP SWAP2 SWAP1 POP JUMP JUMPDEST PUSH1 0x0 DUP2 SWAP1 POP SWAP2 SWAP1 POP JUMP JUMPDEST PUSH2 0x27A0 DUP4 PUSH2 0x276B JUMP JUMPDEST PUSH2 0x27B4 PUSH2 0x27AC DUP3 PUSH2 0x278D JUMP JUMPDEST DUP5 DUP5 SLOAD PUSH2 0x270F JUMP JUMPDEST DUP3 SSTORE POP POP POP POP JUMP JUMPDEST PUSH1 0x0 SWAP1 JUMP JUMPDEST PUSH2 0x27C9 PUSH2 0x27BC JUMP JUMPDEST PUSH2 0x27D4 DUP2 DUP5 DUP5 PUSH2 0x2797 JUMP JUMPDEST POP POP POP JUMP JUMPDEST JUMPDEST DUP2 DUP2 LT ISZERO PUSH2 0x27F8 JUMPI PUSH2 0x27ED PUSH1 0x0 DUP3 PUSH2 0x27C1 JUMP JUMPDEST PUSH1 0x1 DUP2 ADD SWAP1 POP PUSH2 0x27DA JUMP JUMPDEST POP POP JUMP JUMPDEST PUSH1 0x1F DUP3 GT ISZERO PUSH2 0x283D JUMPI PUSH2 0x280E DUP2 PUSH2 0x26DD JUMP JUMPDEST PUSH2 0x2817 DUP5 PUSH2 0x26F2 JUMP JUMPDEST DUP2 ADD PUSH1 0x20 DUP6 LT ISZERO PUSH2 0x2826 JUMPI DUP2 SWAP1 POP JUMPDEST PUSH2 0x283A PUSH2 0x2832 DUP6 PUSH2 0x26F2 JUMP JUMPDEST DUP4 ADD DUP3 PUSH2 0x27D9 JUMP JUMPDEST POP POP JUMPDEST POP POP POP JUMP JUMPDEST PUSH1 0x0 DUP3 DUP3 SHR SWAP1 POP SWAP3 SWAP2 POP POP JUMP JUMPDEST PUSH1 0x0 PUSH2 0x2860 PUSH1 0x0 NOT DUP5 PUSH1 0x8 MUL PUSH2 0x2842 JUMP JUMPDEST NOT DUP1 DUP4 AND SWAP2 POP POP SWAP3 SWAP2 POP POP JUMP JUMPDEST PUSH1 0x0 PUSH2 0x2879 DUP4 DUP4 PUSH2 0x284F JUMP JUMPDEST SWAP2 POP DUP3 PUSH1 0x2 MUL DUP3 OR SWAP1 POP SWAP3 SWAP2 POP POP JUMP JUMPDEST PUSH2 0x2892 DUP3 PUSH2 0x1ECF JUMP JUMPDEST PUSH8 0xFFFFFFFFFFFFFFFF DUP2 GT ISZERO PUSH2 0x28AB JUMPI PUSH2 0x28AA PUSH2 0x2045 JUMP JUMPDEST JUMPDEST PUSH2 0x28B5 DUP3 SLOAD PUSH2 0x26AC JUMP JUMPDEST PUSH2 0x28C0 DUP3 DUP3 DUP6 PUSH2 0x27FC JUMP JUMPDEST PUSH1 0x0 PUSH1 0x20 SWAP1 POP PUSH1 0x1F DUP4 GT PUSH1 0x1 DUP2 EQ PUSH2 0x28F3 JUMPI PUSH1 0x0 DUP5 ISZERO PUSH2 0x28E1 JUMPI DUP3 DUP8 ADD MLOAD SWAP1 POP JUMPDEST PUSH2 0x28EB DUP6 DUP3 PUSH2 0x286D JUMP JUMPDEST DUP7 SSTORE POP PUSH2 0x2953 JUMP JUMPDEST PUSH1 0x1F NOT DUP5 AND PUSH2 0x2901 DUP7 PUSH2 0x26DD JUMP JUMPDEST PUSH1 0x0 JUMPDEST DUP3 DUP2 LT ISZERO PUSH2 0x2929 JUMPI DUP5 DUP10 ADD MLOAD DUP3 SSTORE PUSH1 0x1 DUP3 ADD SWAP2 POP PUSH1 0x20 DUP6 ADD SWAP5 POP PUSH1 0x20 DUP2 ADD SWAP1 POP PUSH2 0x2904 JUMP JUMPDEST DUP7 DUP4 LT ISZERO PUSH2 0x2946 JUMPI DUP5 DUP10 ADD MLOAD PUSH2 0x2942 PUSH1 0x1F DUP10 AND DUP3 PUSH2 0x284F JUMP JUMPDEST DUP4 SSTORE POP JUMPDEST PUSH1 0x1 PUSH1 0x2 DUP9 MUL ADD DUP9 SSTORE POP POP POP JUMPDEST POP POP POP POP POP POP JUMP JUMPDEST PUSH1 0x0 DUP2 SLOAD PUSH2 0x2968 DUP2 PUSH2 0x26AC JUMP JUMPDEST PUSH2 0x2972 DUP2 DUP7 PUSH2 0x1EDA JUMP JUMPDEST SWAP5 POP PUSH1 0x1 DUP3 AND PUSH1 0x0 DUP2 EQ PUSH2 0x298D JUMPI PUSH1 0x1 DUP2 EQ PUSH2 0x29A3 JUMPI PUSH2 0x29D6 JUMP JUMPDEST PUSH1 0xFF NOT DUP4 AND DUP7 MSTORE DUP2 ISZERO ISZERO PUSH1 0x20 MUL DUP7 ADD SWAP4 POP PUSH2 0x29D6 JUMP JUMPDEST PUSH2 0x29AC DUP6 PUSH2 0x26DD JUMP JUMPDEST PUSH1 0x0 JUMPDEST DUP4 DUP2 LT ISZERO PUSH2 0x29CE JUMPI DUP2 SLOAD DUP2 DUP10 ADD MSTORE PUSH1 0x1 DUP3 ADD SWAP2 POP PUSH1 0x20 DUP2 ADD SWAP1 POP PUSH2 0x29AF JUMP JUMPDEST DUP1 DUP9 ADD SWAP6 POP POP POP JUMPDEST POP POP POP SWAP3 SWAP2 POP POP JUMP JUMPDEST PUSH1 0x0 PUSH2 0x29FA PUSH2 0x29F5 PUSH2 0x29F0 DUP5 PUSH2 0x1F5F JUMP JUMPDEST PUSH2 0x2761 JUMP JUMPDEST PUSH2 0x1F5F JUMP JUMPDEST SWAP1 POP SWAP2 SWAP1 POP JUMP JUMPDEST PUSH1 0x0 PUSH2 0x2A0C DUP3 PUSH2 0x29DF JUMP JUMPDEST SWAP1 POP SWAP2 SWAP1 POP JUMP JUMPDEST PUSH1 0x0 PUSH2 0x2A1E DUP3 PUSH2 0x2A01 JUMP JUMPDEST SWAP1 POP SWAP2 SWAP1 POP JUMP JUMPDEST PUSH2 0x2A2E DUP2 PUSH2 0x2A13 JUMP JUMPDEST DUP3 MSTORE POP POP JUMP JUMPDEST PUSH1 0x0 PUSH1 0xE0 DUP3 ADD SWAP1 POP PUSH2 0x2A49 PUSH1 0x0 DUP4 ADD DUP11 PUSH2 0x1EA5 JUMP JUMPDEST DUP2 DUP2 SUB PUSH1 0x20 DUP4 ADD MSTORE PUSH2 0x2A5B DUP2 DUP10 PUSH2 0x295B JUMP JUMPDEST SWAP1 POP DUP2 DUP2 SUB PUSH1 0x40 DUP4 ADD MSTORE PUSH2 0x2A6F DUP2 DUP9 PUSH2 0x295B JUMP JUMPDEST SWAP1 POP PUSH2 0x2A7E PUSH1 0x60 DUP4 ADD DUP8 PUSH2 0x1EA5 JUMP JUMPDEST PUSH2 0x2A8B PUSH1 0x80 DUP4 ADD DUP7 PUSH2 0x1EA5 JUMP JUMPDEST PUSH2 0x2A98 PUSH1 0xA0 DUP4 ADD DUP6 PUSH2 0x2A25 JUMP JUMPDEST PUSH2 0x2AA5 PUSH1 0xC0 DUP4 ADD DUP5 PUSH2 0x2221 JUMP JUMPDEST SWAP9 SWAP8 POP POP POP POP POP POP POP POP JUMP JUMPDEST PUSH32 0x4F6E6C79206C616E646C6F72642063616E2063616C6C20746869732066756E63 PUSH1 0x0 DUP3 ADD MSTORE PUSH32 0x74696F6E00000000000000000000000000000000000000000000000000000000 PUSH1 0x20 DUP3 ADD MSTORE POP JUMP JUMPDEST PUSH1 0x0 PUSH2 0x2B0D PUSH1 0x24 DUP4 PUSH2 0x1EDA JUMP JUMPDEST SWAP2 POP PUSH2 0x2B18 DUP3 PUSH2 0x2AB1 JUMP JUMPDEST PUSH1 0x40 DUP3 ADD SWAP1 POP SWAP2 SWAP1 POP JUMP JUMPDEST PUSH1 0x0 PUSH1 0x20 DUP3 ADD SWAP1 POP DUP2 DUP2 SUB PUSH1 0x0 DUP4 ADD MSTORE PUSH2 0x2B3C DUP2 PUSH2 0x2B00 JUMP JUMPDEST SWAP1 POP SWAP2 SWAP1 POP JUMP JUMPDEST PUSH1 0x0 PUSH1 0x60 DUP3 ADD SWAP1 POP DUP2 DUP2 SUB PUSH1 0x0 DUP4 ADD MSTORE PUSH2 0x2B5D DUP2 DUP7 PUSH2 0x295B JUMP JUMPDEST SWAP1 POP DUP2 DUP2 SUB PUSH1 0x20 DUP4 ADD MSTORE PUSH2 0x2B71 DUP2 DUP6 PUSH2 0x295B JUMP JUMPDEST SWAP1 POP PUSH2 0x2B80 PUSH1 0x40 DUP4 ADD DUP5 PUSH2 0x1EA5 JUMP JUMPDEST SWAP5 SWAP4 POP POP POP POP JUMP JUMPDEST PUSH32 0x4E487B7100000000000000000000000000000000000000000000000000000000 PUSH1 0x0 MSTORE PUSH1 0x12 PUSH1 0x4 MSTORE PUSH1 0x24 PUSH1 0x0 REVERT JUMPDEST PUSH1 0x0 PUSH2 0x2BC2 DUP3 PUSH2 0x1E42 JUMP JUMPDEST SWAP2 POP PUSH2 0x2BCD DUP4 PUSH2 0x1E42 JUMP JUMPDEST SWAP3 POP DUP3 PUSH2 0x2BDD JUMPI PUSH2 0x2BDC PUSH2 0x2B88 JUMP JUMPDEST JUMPDEST DUP3 DUP3 DIV SWAP1 POP SWAP3 SWAP2 POP POP JUMP JUMPDEST PUSH1 0x0 DUP2 SWAP1 POP SWAP3 SWAP2 POP POP JUMP JUMPDEST POP JUMP JUMPDEST PUSH1 0x0 PUSH2 0x2C03 PUSH1 0x0 DUP4 PUSH2 0x2BE8 JUMP JUMPDEST SWAP2 POP PUSH2 0x2C0E DUP3 PUSH2 0x2BF3 JUMP JUMPDEST PUSH1 0x0 DUP3 ADD SWAP1 POP SWAP2 SWAP1 POP JUMP JUMPDEST PUSH1 0x0 PUSH2 0x2C24 DUP3 PUSH2 0x2BF6 JUMP JUMPDEST SWAP2 POP DUP2 SWAP1 POP SWAP2 SWAP1 POP JUMP JUMPDEST PUSH32 0x5465726D696E6174696F6E2070656E616C7479207472616E7366657220666169 PUSH1 0x0 DUP3 ADD MSTORE PUSH32 0x6C65640000000000000000000000000000000000000000000000000000000000 PUSH1 0x20 DUP3 ADD MSTORE POP JUMP JUMPDEST PUSH1 0x0 PUSH2 0x2C8A PUSH1 0x23 DUP4 PUSH2 0x1EDA JUMP JUMPDEST SWAP2 POP PUSH2 0x2C95 DUP3 PUSH2 0x2C2E JUMP JUMPDEST PUSH1 0x40 DUP3 ADD SWAP1 POP SWAP2 SWAP1 POP JUMP JUMPDEST PUSH1 0x0 PUSH1 0x20 DUP3 ADD SWAP1 POP DUP2 DUP2 SUB PUSH1 0x0 DUP4 ADD MSTORE PUSH2 0x2CB9 DUP2 PUSH2 0x2C7D JUMP JUMPDEST SWAP1 POP SWAP2 SWAP1 POP JUMP JUMPDEST PUSH32 0x4F6E6C792074686520636F6E7472616374206F776E65722063616E2063616C6C PUSH1 0x0 DUP3 ADD MSTORE PUSH32 0x20746869732066756E6374696F6E000000000000000000000000000000000000 PUSH1 0x20 DUP3 ADD MSTORE POP JUMP JUMPDEST PUSH1 0x0 PUSH2 0x2D1C PUSH1 0x2E DUP4 PUSH2 0x1EDA JUMP JUMPDEST SWAP2 POP PUSH2 0x2D27 DUP3 PUSH2 0x2CC0 JUMP JUMPDEST PUSH1 0x40 DUP3 ADD SWAP1 POP SWAP2 SWAP1 POP JUMP JUMPDEST PUSH1 0x0 PUSH1 0x20 DUP3 ADD SWAP1 POP DUP2 DUP2 SUB PUSH1 0x0 DUP4 ADD MSTORE PUSH2 0x2D4B DUP2 PUSH2 0x2D0F JUMP JUMPDEST SWAP1 POP SWAP2 SWAP1 POP JUMP JUMPDEST PUSH1 0x0 PUSH1 0xA0 DUP3 ADD SWAP1 POP DUP2 DUP2 SUB PUSH1 0x0 DUP4 ADD MSTORE PUSH2 0x2D6C DUP2 DUP9 PUSH2 0x1F26 JUMP JUMPDEST SWAP1 POP DUP2 DUP2 SUB PUSH1 0x20 DUP4 ADD MSTORE PUSH2 0x2D80 DUP2 DUP8 PUSH2 0x1F26 JUMP JUMPDEST SWAP1 POP PUSH2 0x2D8F PUSH1 0x40 DUP4 ADD DUP7 PUSH2 0x1EA5 JUMP JUMPDEST PUSH2 0x2D9C PUSH1 0x60 DUP4 ADD DUP6 PUSH2 0x1EA5 JUMP JUMPDEST PUSH2 0x2DA9 PUSH1 0x80 DUP4 ADD DUP5 PUSH2 0x2221 JUMP JUMPDEST SWAP7 SWAP6 POP POP POP POP POP POP JUMP JUMPDEST PUSH32 0x4F6E6C792074656E616E74732063616E2063616C6C20746869732066756E6374 PUSH1 0x0 DUP3 ADD MSTORE PUSH32 0x696F6E0000000000000000000000000000000000000000000000000000000000 PUSH1 0x20 DUP3 ADD MSTORE POP JUMP JUMPDEST PUSH1 0x0 PUSH2 0x2E0F PUSH1 0x23 DUP4 PUSH2 0x1EDA JUMP JUMPDEST SWAP2 POP PUSH2 0x2E1A DUP3 PUSH2 0x2DB3 JUMP JUMPDEST PUSH1 0x40 DUP3 ADD SWAP1 POP SWAP2 SWAP1 POP JUMP JUMPDEST PUSH1 0x0 PUSH1 0x20 DUP3 ADD SWAP1 POP DUP2 DUP2 SUB PUSH1 0x0 DUP4 ADD MSTORE PUSH2 0x2E3E DUP2 PUSH2 0x2E02 JUMP JUMPDEST SWAP1 POP SWAP2 SWAP1 POP JUMP JUMPDEST PUSH32 0x5365637572697479206465706F73697420616C72656164792077697468647261 PUSH1 0x0 DUP3 ADD MSTORE PUSH32 0x776E000000000000000000000000000000000000000000000000000000000000 PUSH1 0x20 DUP3 ADD MSTORE POP JUMP JUMPDEST PUSH1 0x0 PUSH2 0x2EA1 PUSH1 0x22 DUP4 PUSH2 0x1EDA JUMP JUMPDEST SWAP2 POP PUSH2 0x2EAC DUP3 PUSH2 0x2E45 JUMP JUMPDEST PUSH1 0x40 DUP3 ADD SWAP1 POP SWAP2 SWAP1 POP JUMP JUMPDEST PUSH1 0x0 PUSH1 0x20 DUP3 ADD SWAP1 POP DUP2 DUP2 SUB PUSH1 0x0 DUP4 ADD MSTORE PUSH2 0x2ED0 DUP2 PUSH2 0x2E94 JUMP JUMPDEST SWAP1 POP SWAP2 SWAP1 POP JUMP JUMPDEST PUSH32 0x5365637572697479206465706F736974207769746864726177616C206661696C PUSH1 0x0 DUP3 ADD MSTORE PUSH32 0x6564000000000000000000000000000000000000000000000000000000000000 PUSH1 0x20 DUP3 ADD MSTORE POP JUMP JUMPDEST PUSH1 0x0 PUSH2 0x2F33 PUSH1 0x22 DUP4 PUSH2 0x1EDA JUMP JUMPDEST SWAP2 POP PUSH2 0x2F3E DUP3 PUSH2 0x2ED7 JUMP JUMPDEST PUSH1 0x40 DUP3 ADD SWAP1 POP SWAP2 SWAP1 POP JUMP JUMPDEST PUSH1 0x0 PUSH1 0x20 DUP3 ADD SWAP1 POP DUP2 DUP2 SUB PUSH1 0x0 DUP4 ADD MSTORE PUSH2 0x2F62 DUP2 PUSH2 0x2F26 JUMP JUMPDEST SWAP1 POP SWAP2 SWAP1 POP JUMP JUMPDEST PUSH32 0x54696D6573205570000000000000000000000000000000000000000000000000 PUSH1 0x0 DUP3 ADD MSTORE POP JUMP JUMPDEST PUSH1 0x0 PUSH2 0x2F9F PUSH1 0x8 DUP4 PUSH2 0x1EDA JUMP JUMPDEST SWAP2 POP PUSH2 0x2FAA DUP3 PUSH2 0x2F69 JUMP JUMPDEST PUSH1 0x20 DUP3 ADD SWAP1 POP SWAP2 SWAP1 POP JUMP JUMPDEST PUSH1 0x0 PUSH1 0x20 DUP3 ADD SWAP1 POP DUP2 DUP2 SUB PUSH1 0x0 DUP4 ADD MSTORE PUSH2 0x2FCE DUP2 PUSH2 0x2F92 JUMP JUMPDEST SWAP1 POP SWAP2 SWAP1 POP JUMP JUMPDEST PUSH32 0x52656E74207061796D656E74206661696C656400000000000000000000000000 PUSH1 0x0 DUP3 ADD MSTORE POP JUMP JUMPDEST PUSH1 0x0 PUSH2 0x300B PUSH1 0x13 DUP4 PUSH2 0x1EDA JUMP JUMPDEST SWAP2 POP PUSH2 0x3016 DUP3 PUSH2 0x2FD5 JUMP JUMPDEST PUSH1 0x20 DUP3 ADD SWAP1 POP SWAP2 SWAP1 POP JUMP JUMPDEST PUSH1 0x0 PUSH1 0x20 DUP3 ADD SWAP1 POP DUP2 DUP2 SUB PUSH1 0x0 DUP4 ADD MSTORE PUSH2 0x303A DUP2 PUSH2 0x2FFE JUMP JUMPDEST SWAP1 POP SWAP2 SWAP1 POP JUMP JUMPDEST PUSH1 0x0 PUSH1 0x80 DUP3 ADD SWAP1 POP PUSH2 0x3056 PUSH1 0x0 DUP4 ADD DUP8 PUSH2 0x1EA5 JUMP JUMPDEST DUP2 DUP2 SUB PUSH1 0x20 DUP4 ADD MSTORE PUSH2 0x3068 DUP2 DUP7 PUSH2 0x295B JUMP JUMPDEST SWAP1 POP DUP2 DUP2 SUB PUSH1 0x40 DUP4 ADD MSTORE PUSH2 0x307C DUP2 DUP6 PUSH2 0x295B JUMP JUMPDEST SWAP1 POP PUSH2 0x308B PUSH1 0x60 DUP4 ADD DUP5 PUSH2 0x1EA5 JUMP JUMPDEST SWAP6 SWAP5 POP POP POP POP POP JUMP INVALID LOG2 PUSH5 0x6970667358 0x22 SLT KECCAK256 DUP6 SWAP8 SELFDESTRUCT 0xE9 0xD6 DUP13 0xC9 STATICCALL DUP11 0xEA 0xBF PUSH18 0x5D02059BD0DD107904DEC1A36F29BE46A5C 0xE5 SWAP15 PUSH5 0x736F6C6343 STOP ADDMOD BYTE STOP CALLER "
        },
        "methodIdentifiers": {
          "Agreements(uint256)": "d8b4ac9d",
          "Rents(uint256)": "5af57a8c",
          "Rooms(uint256)": "f673e2c7",
          "addRoom(string,string,uint256,uint256)": "63e475bd",
          "agreementCompleted(uint256)": "16abb8a1",
          "agreementTerminated(uint256)": "4f5e4428",
          "contractOwner()": "ce606ee0",
          "getNumberOfRoomsAvailable()": "0e3abb7f",
          "getTotalNumberOfRooms()": "65bf01d6",
          "getTotalNumberOfRoomsRented()": "24466976",
          "payRent(uint256)": "d9e8843f",
          "signAgreement(uint256)": "03742de0",
          "withdrawSecurityDeposit(uint256)": "98d380e0"
        }
      }
    }
  }
}